:020000040800F2
:10000000C04E00207D020008B7360008212E0008EF
:10001000B53600083D060008BD3F0008000000009E
:10002000000000000000000000000000C101000806
:100030003909000800000000150200086D380008AA
:10004000970200089702000897020008970200082C
:10005000970200089702000897020008970200081C
:10006000970200089702000897020008970200080C
:100070006508000897020008970200089702000828
:100080007108000897020008970200084D06000852
:10009000410600089702000897020008970200082E
:1000A00097020008970200089702000897020008CC
:1000B00097020008970200089702000897020008BC
:1000C00097020008970200089702000897020008AC
:1000D00097020008813F0008993F0008A53F0008EB
:1000E000970200089702000897020008970200088C
:1000F000970200089702000897020008970200087C
:10010000970200089702000897020008970200086B
:100110009702000897020008693900089702000852
:10012000970200087D080008890800089702000867
:100130009702000897020008970200086506000869
:100140005906000897020008970200089702000865
:10015000970200089702000897020008B13F0008C4
:10016000970200089702000897020008970200080B
:10017000970200089702000897020008000000009C
:1001800097020008970200089702000897020008EB
:1001900097020008970200089702000897020008DB
:1001A000000000000000000097020008DFF80CD0FB
:1001B00000F012FA00480047C5440008C04E002075
:1001C0002B4B19680868B0E8F04F80F30988BFF33B
:1001D0006F8F4FF0000080F311887047000000001F
:1001E00006480068006880F3088862B661B6BFF30D
:1001F0004F8FBFF36F8F00DF00BF00BF08ED00E03F
:10020000DFF80C00016841F470010160704700BF25
:1002100088ED00E0EFF30980BFF36F8F144B1A688D
:100220001EF0100F08BF20ED108A20E9F04F10607B
:1002300008B44FF0500080F31188BFF34F8FBFF325
:100240006F8F05F011F94FF0000080F3118808BCA2
:1002500019680868B0E8F04F1EF0100F08BFB0EC46
:10026000108A80F30988BFF36F8F704700BF00BF0B
:1002700008000020EFF30580704700000648804723
:1002800006480047FEE7FEE7FEE7FEE7FEE7FEE77B
:10029000FEE7FEE7FEE7FEE715390008AD010008BE
:1002A00040EA01039B0703D009E008C9121F08C0F8
:1002B000042AFAD203E011F8013B00F8013B521E78
:1002C000F9D27047D2B201E000F8012B491EFBD2EF
:1002D00070470022F6E710B513460A460446194651
:1002E000FFF7F0FF204610BD2DE9FE4F804681EA62
:1002F0000300C00F0C46009021F0004123F00045A0
:10030000B8EB0200A94105D24046214690461C4662
:100310000B46024623F00040104347D0270DC7F399
:100320000A00C3F30A510290401A019040286BDA88
:10033000C3F3130040F4801B0098924620B10023C1
:10034000D2EB030A63EB0B0B01985946C0F1400254
:10035000504600F0B3F806460D4650465946019AFD
:1003600000F0CBF810EB08006141002487EA11523D
:1003700084EAE7731A4340D0009A62B3019A012AD3
:100380004FEA075215DC001B61EB02014FF00042FF
:1003900002EA0752CDE90042001C41F580113246C5
:1003A0002B4600F0CBF803B0BDE8F08F4046214665
:1003B000F9E7001B61EB0201001C41F580130018F6
:1003C0005B412018A2F5001747EB030140EAD57006
:1003D000B6196D4111E06D084FEA360645EAC07561
:1003E0004FEA0752001B61EB0201001C41F580112E
:1003F00049084FEA30000019514132462B4603B0FC
:10040000BDE8F04F00F08BB80098012240000023B7
:10041000D0EB020263EBE073009821464FEAE074F0
:10042000B8EB000061EB0401E9E783F000435BE710
:1004300081F0004158E70EB5C10F80EAE070084432
:10044000CA07002140F233438DE80E000A460B46EE
:1004500000F074F803B000BDC1F30A5210B5C1F347
:10046000130140F2FF3341F480119A4201DA002077
:1004700010BD40F233439A42A2F2334203DC5242AF
:1004800000F02BF810BD904010BD000030B5041EE8
:1004900071F1000404DB4FF00044404264EB0101C1
:1004A000141E73F1000405DB1C464FF0004352425A
:1004B00063EB0403994208BF904230BD202A04DB5D
:1004C000203A00FA02F1002070479140C2F1200367
:1004D00020FA03F3194390407047202A04DB203AA6
:1004E00021FA02F00021704721FA02F3D040C2F154
:1004F00020029140084319467047202A06DBCB179B
:10050000203A41FA02F043EAE07306E041FA02F3CE
:10051000D040C2F12002914008431946704710B5FF
:10052000141E73F1000408DA401C41F10001921816
:100530005B411A4301D120F0010010BD2DE9F04DBF
:1005400092469B4611B1B1FA81F202E0B0FA80F214
:1005500020329046FFF7B2FF04460F4640EA0A00F9
:1005600041EA0B0153465A46084313D0114653EA59
:10057000010019D0C8F140025046FFF7AEFF054612
:100580000E46504659464246FFF798FF084305D0AD
:10059000012004E020463946BDE8F08D00200543E7
:1005A00046EAE0762C4337430A986305E40AA0EB59
:1005B00008000022FD0A44EA47540A3002D5002010
:1005C0000146E9E7010510196941DDE9084500190F
:1005D0006941BDE8F04DA2E7064C074D06E0E06832
:1005E00040F0010394E8070098471034AC42F6D37A
:1005F000FFF7E0FD54660008746600080E4A4FF4E9
:1006000000531046D1894089B1F5805F08D39842E4
:1006100003D8A1F5805398420ADC00F5005007E0AA
:10062000984205D801F58053984201D9A0F50050B1
:10063000401AD08070470000DC440020FEE7000034
:10064000014800F09DBB0000EC420020014800F092
:1006500097BB0000EC420020014800F091BB000075
:100660002C430020014800F08BBB00002C430020ED
:1006700010B54FF4D872036802EB01129B5813F0C7
:100680000404436B9C600468436BA45854D0E40892
:100690005C6003689A58436B02F00202DA604FF420
:1006A000DA72036802EB01129B58446B03F00F03EC
:1006B000236103689A58436BC2F30722DA614FF44F
:1006C000DC72036802EB01129B58446B23750368CC
:1006D0009B58446B1B0A637503689B58446B1B0C47
:1006E000A37503689A58436B120EDA754FF4DE72E5
:1006F000036802EB01129B58446B237603689B58F6
:10070000446B1B0A637603689B58446B1B0CA376EF
:1007100003689A58436B120EDA762022002901688A
:100720000DD00A6101684A6922F010024A6190F80E
:100730003810222909D021E0640D1C60A9E7CA60A5
:1007400001684A6922F00202F0E701684A6922F46E
:1007500080724A6101684A6922F400724A61016844
:100760004A6922F480624A6101684A6922F400629F
:100770004A6101684A6922F400424A6190F83810DF
:10078000322907D05FF0010180F8381000F010FD29
:10079000002010BD1221F7E710B501684A6922F068
:1007A00001024A6190F83810122918D101684A698B
:1007B00022F480724A6101684A6922F400724A6137
:1007C00001684A6922F480624A6101684A6922F438
:1007D00000624A6101684A6922F400424A6190F865
:1007E0003810322906D0012180F8381000F0E6FDDB
:1007F000002010BD2221F7E700F006F800F028F8ED
:1008000004F016FAFAE7000010B500210D4802F0D6
:10081000F7F804210B4802F0F3F80821094802F028
:10082000EFF80C21074802F0EBF8074803F0DAFF75
:100830000021054800F078FCBDE810400021034885
:1008400000F072BCCC3E0020EC4200202C43002083
:1008500002480349808A088070470000264A002029
:10086000D4000020014800F0BDBD00004041002040
:10087000014800F0B7BD0000E0400020014800F052
:10088000B1BD0000A0410020014800F0ABBD000058
:100890008040002001681823CAB2103AB2FBF3F27C
:1008A000054B6FF30901032A9B5CC36500D9091D41
:1008B00081650846704700003859000810B50146A8
:1008C00000208B698A6A4FF0C07453B1B3F5005FA2
:1008D00015D072B1012A0CD0022A0AD0032A09D1FC
:1008E00004E01AB1012A06D0022A03D1C96AC9015B
:1008F00000D5012010BDC96AA142FAD010BD002A5E
:10090000F7D0012AF2D0022AF3D0032AF3D010BD87
:1009100030B50468256825F4802525600468636087
:100920008368402B036803D099600068C26030BDC3
:100930009A600068C16030BD7047000086B0142224
:1009400052A101A8FFF7ACFC002003F0ADFF04F0BA
:1009500081F8534D01AE4FF00308287A012802D0E8
:10096000032803D103E003F06DFF01278BE02FB1D3
:10097000002003F099FF04F06DF800270024601CAC
:10098000C1B2325D002004F095F8641C042CF6DB43
:100990000424E01EC1B2325D012004F08BF8641C17
:1009A000082CF6DB0824E01FC1B2325D022004F0FF
:1009B00081F8641C0C2CF6DB0C24A4F10B00C1B2F2
:1009C000325D032004F076F8641C102CF5DB04F093
:1009D00041F8B5F90000002801DB202200E02D22BB
:1009E0000621002004F066F8B5F90200002801DBBA
:1009F000202200E02D220621012004F05BF8B5F949
:100A00000400002801DB202200E02D220621022024
:100A100004F050F8B5F90600002801DB202200E0C0
:100A20002D220621032004F045F8CDF80080B5F909
:100A300000204446002A00DC5242002307211846C9
:100A400004F074F80094B5F90220002A00DC524248
:100A500000230721012004F069F80094B5F904206F
:100A6000002A00DC524200230721022004F05EF835
:100A70000094B5F90620002A00DC52420023072129
:100A8000032004F053F804F0D3F866E74348313A02
:100A90004348323A4348333A4348343A000000006E
:100AA000264A0020FEE700F0ADB800002DE9F05F17
:100AB0002DED048BFFF7A2FD4A484B4EDFF82CB119
:100AC00000784FF47A794FF0804440F2DC58371FB9
:100AD0004FF4257A9FED469B474D0A287DD2DFE8EB
:100AE00000F07C05133A05133A05133A002211462B
:100AF000104602F059FEC4F83490C4F83890C6F895
:100B00000080C7F8008024E00022B5F900001146FB
:100B100002F04AFEC4F83490C4F8389068884FF662
:100B20000C6110FB01F191FBFAF000F2DC50FFF7D1
:100B300082FC41EC180B8BED028BFFF78DFC3060D3
:100B400053EC182B51EC190BFFF76FFCFFF784FCEB
:100B50003860002238E0C4F83480C4F83880A988AE
:100B6000288801EB4101254B084400B2988069892F
:100B7000DA88114409B2D980002900DA4942494291
:100B800001EBD17141F34F02DA80002102F00CFE3B
:100B900068884FF60C6110FB01F191FBFAF000F24E
:100BA000DC50FFF748FC41EC180B8BED028BFFF794
:100BB00053FC306053EC182B51EC190BFFF735FC4C
:100BC000FFF74AFC38600122BDEC048B4FF4005162
:100BD000BDE8F05F0A4800F055BEBDEC048BBDE8EF
:100BE000F09F0000D00000203C0C0040A04A0020F4
:100BF000000000000070A740264A0020E40000200A
:100C00000018024010B500F013F80021064801F06A
:100C1000F7FE0421044801F0F3FE044841F6B14117
:100C2000C1810021018210BD183E0020DC4400205B
:100C300010B5B3EE0E1AF1EE040A9FED0E0A4FF452
:100C4000FA6347F2305203210B4802F045FD9FED55
:100C50000B1ADFED0B0AB7EE080A41F288334FF4A6
:100C600080420321074802F037FDBDE810406420B0
:100C700000F017BD000048423C4500200000000085
:100C8000CDCCCC3DA8450020FFF70DFFFFF70EFFB0
:100C900003F0CEFFFAE70000F0B50A7D0120904096
:100CA000344A136843F001031360136823F47C5340
:100CB000136013684C6A43EA042313602D4B1C3302
:100CC0001C6884431C602B4D2B4CCE690C35A6B997
:100CD0002E6886432E608F894E6867F31F464F69E2
:100CE00004EBC707C7F840660F890E6867F31F4615
:100CF0004F6904EBC707C7F84466CE69012E14D1CB
:100D00002E6806432E600E884D6866F31F454E69B7
:100D100004EBC606C6F840560E89CD6866F31F453B
:100D20004E6904EBC604C4F84456124C8D69241D68
:100D3000002D256806D0054325600E4C0D6914343E
:100D400015B104E08543F7E72568854325600D6903
:100D5000012D02D1256805432560096A012902D1C8
:100D6000196801431960106820F00100106000202C
:100D7000F0BD0000006600400060004070470000C9
:100D800010B5044600684169C943C90714D1826897
:100D90005849914368D000218368574A9A4365D0E7
:100DA000002283685548984362D0002011430143D4
:100DB00002D02046FFF7F0FC2068C168406911F0BE
:100DC000030FC0F3400004D018B100212046FFF704
:100DD0004FFC21680869496910F0030FC1F3001145
:100DE00004D019B101212046FFF742FC2068816937
:100DF000426911F0010FC2F300234269C2F3C0320D
:100E000005D023B11AB1E16B41F00101E1638169C1
:100E1000C1F3400341694269C1F34021C2F3C032CA
:100E20002BB121B11AB1E16B41F00201E16381699B
:100E30004269C1F38001C2F380234269C2F3C03228
:100E400029B123B11AB1E16B41F00401E163816979
:100E500011F0700F0ED0002142694369C2F3C02225
:100E6000C3F3C03341B127E0012195E7012298E7A0
:100E700001209BE70121EFE7F2B1EBB1816901F0BD
:100E80007001402929D006DC102909D020290BD077
:100E900030290DD11DE0502923D0602908D124E04C
:100EA000E16B41F0080102E0E16B41F01001E16308
:100EB000816921F070018161E06B002808D0216810
:100EC00004204860012084F838002046FFF756FFD0
:100ED00010BDE16B41F02001E9E7E16B41F0400119
:100EE000E5E7E16B41F08001E1E7E16B41F48071FE
:100EF000DDE7000003000004000300080000031009
:100F00002DE9F041040004D094F83800002518B110
:100F100007E00120BDE8F08184F83950204600F058
:100F200093F8022084F838002068016821F002015B
:100F300001602068016841F00101016000F0A8FC37
:100F40000746032605E000BF00F0A2FCC01B0A28EC
:100F500063D820684068C007F6D020684168C90798
:100F600068D0A169012901683FD021F080010160AA
:100F7000E0690128206801683AD021F04001016051
:100F8000206A01282068016835D021F02001016025
:100F9000606A01282068016830D021F010010160EA
:100FA000A06A0128206801682BD021F008010160A7
:100FB000E06A01282068016826D021F00401016060
:100FC000D4E902010843D4E90412114308436168DB
:100FD000491E08432168C8612068016821F00101A9
:100FE000016000F055FC07461CE041F08001BEE7BF
:100FF00041F04001C3E741F02001C8E741F0100192
:10100000CDE741F00801D2E741F00401D7E700BF86
:1010100000F03EFCC01B0A2804D904F8386F0320F6
:10102000657077E720684068C007F1D120684068A4
:10103000C00703D0042084F838006AE7E563012084
:1010400084F83800002065E7F0B5324B0768DFF818
:10105000C0C018680322022409252F490026401C1D
:1010600087B0674521D11860012807D1086840F092
:1010700000700860086800F0007005908DE854006A
:10108000CDE903256946254800F016FB002205211D
:10109000132000F097FC132000F088FC00220521AB
:1010A000142000F08FFC14202EE0DFF874C0674598
:1010B0002CD10F6847F080670F600F68012807F098
:1010C00080670597186007D1086840F000700860D5
:1010D000086800F0007005904FF440508DE8510012
:1010E000CDE9032569460F4800F0E6FA00221146D3
:1010F0003F2000F067FC3F2000F058FC0022114622
:10110000402000F05FFC402000F050FC07B0F0BD34
:10111000006400406800002040380240000C02409B
:10112000006800400004024010B590F83820012A01
:1011300001D0122A39D190F83920012A35D0012264
:1011400080F8392090F83820122A29D05FF0220246
:1011500080F838200022C26303685C6944F480741C
:101160005C6103685C6944F400745C6103685C69F9
:1011700044F480645C6103685C6944F400645C610D
:1011800003685C6944F400445C6180F839200068BD
:101190000029416906D041F010014161002010BDD5
:1011A0003222D5E741F00201F7E7022010BD00002E
:1011B00000B5416B0968A1F20121072914D2DFE8CB
:1011C00001F00404040420240F00124AC9B2117073
:1011D000114A01EB410102EB01120146104601E008
:1011E00001460E4802F058FF0D480068416941F081
:1011F000020141610B480068416941F0020141610F
:1012000000BD014605483038ECE701460348603828
:10121000E8E700006C0000206C4300200C45002033
:10122000EC4200202C4300202DE9F05F0E460168BF
:1012300004468868400105D48868000102D48868A3
:10124000C00067D594F8390001280ED0012784F832
:10125000397094F8380022280AD0122084F8380017
:101260008868400106D500250AE00220BDE8F09F0D
:101270003220F3E78868000101D5012500E002254E
:101280004FF4C07000EB05100A5802F001020A503A
:10129000216B8A68EAB3D4F800C05CF800301343CD
:1012A000CA68496842EAC1010B434CF80030216B1F
:1012B0000A7C02F00F020A614FF4C271226801EB4E
:1012C0000511535823F00F03535022685358D4F894
:1012D00030C0DCF810C043EA0C035350216B4FF4CC
:1012E000C47303EB05130A7DD1F8151042EA0121FE
:1012F0002268D150216B4FF4C67303EB05130A7EAD
:10130000D1F8191042EA01212268D15021680A5807
:1013100001E00DE046E042F001020A5000F0B8FAA8
:1013200081464FF00008DFF888A0DFF888B019E0A8
:1013300022681358D1F80CC0098843EA0C0343EA29
:1013400041511150B3E7701C0CD02EB100F0A0FA3F
:10135000A0EB0900B04205D9032084F8380084F8D6
:10136000398083E795B12068012D816813D0124838
:1013700088430028E7D194F8380032280ED084F84A
:10138000387000BF84F8398000206FE720688168DA
:101390002AEA0100EDE72BEA0100EAE7222084F8BF
:1013A0003800EFE7042084F8380001205EE70000F1
:1013B000030000040003000800000310704790F8C9
:1013C0003510022903D08021416501207047052195
:1013D00080F835100068016821F0010101600020EB
:1013E000704700002DE9F84304464FF00008CDF89F
:1013F000008064484FF41651A56D0068B0FBF1F70A
:101400002E6894F85C10082000FA01F131420FD0E8
:1014100021680A6852070BD50A6822F004020A60A4
:1014200094F85C108840A860606D40F00100606531
:1014300094F85C1054488840304208D021684969CB
:10144000090604D5A860606D40F0020060654E4852
:1014500094F85C10C01C8840304208D021680968AC
:10146000890704D5A860606D40F00400606594F8B9
:101470005C1010208840304218D0216809680907A4
:1014800014D5A86020680168490304D500680003EA
:1014900008D5A16C07E00168C90503D4016821F0F3
:1014A00008010160216C09B12046884794F85C105E
:1014B0002020884030424FF0010631D02168096871
:1014C000C9062DD5A86094F8350005282068016864
:1014D00006D0490347D5006800031DD4616C1CE0A9
:1014E00021F0160101602068416921F0800141610D
:1014F000206C08B9A06C20B12068016821F00801B7
:10150000016094F85C103F208840A86084F8348023
:1015100084F83560216D1FE0E16B09B120468847F2
:10152000606D00282BD0606DC00714D0052084F8B2
:1015300035002068016821F0010101600098401C1D
:101540000090B84203D820680068C007F6D184F83C
:10155000348084F83560E16C002910D001B0204659
:10156000BDE8F04308470168C905D5D4016821F0FA
:101570001001016084F8348084F83560CCE7BDE860
:10158000F883000004000020010080002DE9F041F4
:10159000044600F07DF906465CB1002584F834501D
:1015A000022084F835002068016821F00101016003
:1015B0000DE00120BDE8F08100F06AF9801B0528EC
:1015C00005D920206065032084F83500F2E7206803
:1015D0000068C007F0D1226811681F480140D4E9B3
:1015E00001031843D4E903363343184363691843AE
:1015F000A3691843E3691843236A18430843616ADF
:10160000042903D1D4E90B1319430843106020685F
:101610004069666A20F0070130460E43012704281E
:101620000AD1A06A06432046FFF748F920B14020BE
:10163000606584F83570BCE7206846612046FFF796
:1016400029F994F85C203F2191408160656584F818
:1016500035700020AEE700003F8010F070B5044602
:1016600090F83400002501280CD0012084F83400C3
:1016700094F835600020012E06D084F8340002254D
:10168000284670BD022070BD022684F83560606572
:101690002046FFF73DF92068016841F00101016033
:1016A000EEE731B500F0F4F8044600F0F1F80099E7
:1016B000001B8842F9D338BD2DE9F84FDFF890B10F
:1016C00000224FF001084FF0030A4FF00F090BF111
:1016D000040E00BF0B6808FA02F42340A3426ED147
:1016E0004D68022D01D0122D0ED1D50800EB850CCE
:1016F000DCF820505607F70E09FA07F6B5430E69D5
:10170000BE402E43CCF82060066855000F790AFAD7
:1017100005FC07F0030726EA0C06AF4037430760D5
:101720004E68012E05D0022E03D0112E01D0122EAC
:101730000ED18768CE6827EA0C07AE403E4386602C
:101740004668A6430C79C4F30014944034434460C3
:10175000C4688E6824EA0C04AE402643C6604C6818
:10176000E4006FD53B4C256845F48045256024682E
:1017700022F0030504F480440094374C2E19D6F867
:10178000084895072F0F09FA07F5AC43334DA842D7
:1017900001D100252EE0324DA84201D1012529E0DA
:1017A000304DA84201D1022524E02F4DA84201D19D
:1017B00003251FE02D4DA84202D104251AE041E087
:1017C0002B4DA84201D1052514E02A4DA84201D194
:1017D00006250FE0284DA84201D107250AE0274D34
:1017E000A84201D1082505E0254DA84201D10925CF
:1017F00000E00A25BD402543C6F80858DBF8004044
:101800005D464E689C43F60300D51C432C60DEF811
:10181000004075464E689C43B60300D51C432C60BF
:101820000B4D08352C684E689C43F60200D51C43CE
:101830002C60074D0C352C684E689C43B60200D5D1
:101840001C432C60521C102AFFF444AFBDE8F88FF3
:10185000003C01404438024000300140000002409A
:101860000004024000080240000C02400010024048
:101870000014024000180240001C024000200240F8
:10188000002402400AB1816170470904FBE70000AF
:10189000014800687047000000000020024801680D
:1018A000491C016070470000000000200B4810B583
:1018B000016841F400710160016841F480610160D8
:1018C000016841F480710160032000F09BF8002062
:1018D00000F006F800F03EF8002010BD003C024089
:1018E00010B5014688B00022362000F06BF8362093
:1018F00000F05CF813480024016841F01001016019
:10190000006805A900F010000690684600F090F904
:1019100000F0B4F90C494000B0FBF1F10C480B4A5F
:10192000491E026040F2E732C0E90324C0E9011415
:1019300000F01DFE10B1012008B010BD044800F0F9
:1019400032FEF9E74038024040420F0000100040EC
:101950000042002010B5032000F054F80022114688
:101960006FF00B0000F02EF8002211466FF00A0015
:1019700000F028F8002211466FF0090000F022F86C
:1019800000221146501F00F01DF800221146101FC2
:1019900000F018F800220F21901E00F013F800222A
:1019A0000F21BDE81040501E00F00CB800F01F02DF
:1019B000012191404009800000F1E020C0F80011B1
:1019C00070470000F0B40E4B1B680C46C3F30223B3
:1019D000C3F10705042D00D90425191D072901D2DB
:1019E000002300E0DB1E012606FA05F1491E214016
:1019F00099409E40761E16403143F0BC01F05CBE1B
:101A00000CED00E0064900F0070208684FF6FF03FE
:101A1000184040EA0220034A104308607047000063
:101A20000CED00E00000FA052DE9F8431E480168BE
:101A300041F0805101600068012600F08050009064
:101A4000300490FAA0F0194FB0FA80F047F8206007
:101A5000FFF71EFF05464FF47A78154C05E000BFEE
:101A6000FFF716FF401B404515D86068C003F7D547
:101A70004FF4003090FAA0F0B0FA80F047F8206000
:101A8000FFF706FF0546464608E000BFFFF700FFE8
:101A9000401BB04202D90320BDE8F8836068800390
:101AA000F4D50020F8E700004038024000000E4264
:101AB000007000402DE9F047DFF8649105460F46BD
:101AC000D9F8000000F00F01F8B28046B94208D200
:101AD000014689F80010D9F8000000F00F00B84264
:101AE00074D128784F4C800705D52068A96820F06C
:101AF000F000084320602878C00759D04949686839
:101B0000083901281AD002281BD0032819D00968E7
:101B1000890700295ADA216821F003010143216075
:101B2000FFF7B6FE6968064641F28830012911D0F8
:101B300002291DD00329824627D035E00968890390
:101B4000E7E709688901E4E7FFF7A2FE811B514539
:101B500001D926E082462068C0F381000128F3D134
:101B600026E000BFFFF794FE811B514501D918E024
:101B700082462068C0F381000228F3D118E000BF3C
:101B8000FFF786FE811B51450BD82068C0F381000A
:101B90000328F5D10CE000BFFFF77AFE811B514509
:101BA00002D90320BDE8F087206810F00C0FF3D1B4
:101BB000D9F80010484601F00F01B94208D980F861
:101BC0000080006800F00F00B84201D00120E9E772
:101BD0002878400705D52068E96820F4E0500843DC
:101BE00020602878000706D52068296920F4604025
:101BF00040EAC100206000F071F82168F02292FAFA
:101C0000A2F201F0F001B2FA82F2D140064A515C30
:101C1000C840064908600020FFF762FE0020C1E7C7
:101C2000003C0240083802404059000804000020EF
:101C30000F2202600C4A136803F003034360136829
:101C400003F0F0038360136803F4E053C360126889
:101C50004FF4E05303EAD20202610448006800F046
:101C60000F0008607047000008380240003C024046
:101C70000148006870470000040000200848094936
:101C8000006809684FF4E05292FAA2F201F4E051C0
:101C9000B2FA82F2D140044A515CC8407047000059
:101CA000040000200838024040590008084809494B
:101CB000006809684FF4604292FAA2F201F46041B0
:101CC000B2FA82F2D140044A515CC8407047000029
:101CD00004000020083802404059000830B5194877
:101CE000006810F00C01184812D0184C04290ED0CE
:101CF00008290DD11349091F0A6802F03F030A6839
:101D0000550247F6C07204D5B4FBF3F003E0204659
:101D100030BDB0FBF3F00B680968134092FAA2F2F1
:101D2000B2FA82F2D34058434FF4403292FAA2F210
:101D300001F44031B2FA82F2D140491C4900B0FBB3
:101D4000F1F030BD083802400024F400001BB70059
:101D50002DE9F84F0446DFF8CC820078A8F1040B97
:101D6000C007ABF1040537D0D8F800104046C1F3E6
:101D70008101012908D00068C0F3810002280AD13E
:101D8000DBF80000400206D52868800324D560688F
:101D9000002878D020E0A3492079891F0870606866
:101DA00068B1FFF775FD064605E000BFFFF770FD5F
:101DB000801B642868D828688003F7D50CE0FFF7FB
:101DC00067FD064605E000BFFFF762FD801B642843
:101DD000F0D828688003F7D42078934E80074FF01E
:101DE000010A4FF0000742D5D8F80010404611F024
:101DF0000C0F08D00068C0F3810002280AD1DBF87C
:101E00000000400206D42868800714D5E068012845
:101E100039D110E0E068D8B1C6F800A0FFF738FD6E
:101E2000814605E0FFF734FDA0EB09000228C1D888
:101E300028688007F6D52868F82292FAA2F221696C
:101E4000B2FA82F220F0F8009140084328600EE0D8
:101E50003760FFF71DFD814606E000BFFFF718FD64
:101E6000A0EB090002280FD828688007F6D4207854
:101E7000000728D56D486169A1B1C0F800A0FFF73F
:101E800007FD814608E0CAE079E000BFFFF700FDEA
:101E9000A0EB0900022872D862486C300068800705
:101EA000F4D510E00760FFF7F3FC814606E000BFC1
:101EB000FFF7EEFCA0EB0900022860D859486C300F
:101EC00000688007F4D42078400749D55548383059
:101ED000016841F080510160006800F0805000907E
:101EE0005348016841F480710160FFF7D1FC8146DD
:101EF00006E000BFFFF7CCFCA0EB090002283ED8AB
:101F00004B480068C005F5D5DFF81891207A09F133
:101F1000680989F80000A06888B1FFF7B9FC009053
:101F200008E000BFFFF7B4FC0099411A41F2883085
:101F300081426CD8D9F800008007F3D510E0FFF794
:101F4000A7FC009008E000BFFFF7A2FC0099411A2F
:101F500041F2883081425AD8D9F800008007F3D482
:101F6000A069E0B3D8F80010C1F38101022956D06E
:101F70000228376604D0FFF78BFC04464AE046E0AF
:101F8000FFF786FC074604E0FFF782FCC01B02282F
:101F90003DD828688001F7D4D4E90701084347F603
:101FA000C07292FAA2F2616AB2FA82F29140A26A17
:101FB0004FF0FF3303EB52024FF4403393FAA3F395
:101FC000B3FA83F39A40114308434FF0706292FAD8
:101FD000A2F2E16AB2FA82F29140084300E01CE00A
:101FE000CBF80000C6F860A0FFF752FC044604E0FE
:101FF000FFF74EFC001B022809D828688001F7D59E
:102000000BE000BFFFF744FC001B022802D90320AD
:10201000BDE8F88F28688001F4D40020F8E701209B
:10202000F6E700000838024000004742800E4742B1
:102030000070004070B5040005D00025A56294F83A
:10204000510010B106E0012070BD84F850502046C8
:1020500000F030F8022084F851002068016821F077
:1020600040010160D4E901010843D4E9031211439E
:10207000084361690843218B01F400710843E16959
:102080000843216A0843A16A084321680860A069DF
:10209000042101EA1040616A084321684860206811
:1020A000C16921F40061C1616565012084F85100B6
:1020B000002070BD2DE9F043074600682049002547
:1020C000204C022687B04FF003084FF005098842E4
:1020D0001BD1206840F480502060206802AA00F4E0
:1020E000805005901820CDE9000682E8200369465B
:1020F0001548FFF7E1FA8020CDE9000602AA6946FB
:1021000082E820031148FFF7D7FA1149386888425E
:1021100012D1206840F480102060206802AA00F4E8
:10212000801005904FF46070CDE9000682E820032E
:1021300069460848FFF7C0FA07B0BDE8F083000021
:1021400000300140443802400004024000000240D8
:1021500000500140001402402DE9F84F044690F869
:1021600050000026994617460D4601280DD04FF025
:10217000010B84F850B0FFF78BFB804694F85100B8
:10218000B246012804D0022694E00220BDE8F88F70
:10219000002D7BD0002F79D0032084F85100C4F8A3
:1021A00054A02563A786E786C4F838A0A4F83CA00D
:1021B000A4F83EA0C4F844A0C4F840A0A068B0F5BC
:1021C000004F04D12068016841F48041016020681B
:1021D0000168490603D4016841F040010160E068EC
:1021E000B0F5006F606804D030B3E08E012823D0D2
:1021F0003EE010B1E08E01281AD135F8021B2068AC
:1022000005E020688168890706D535F8021BC160A2
:10221000E08E401EE0860BE0B9F1000F34D0B9F13A
:10222000FF3F05D0FFF734FBA0EB080149452BD257
:10223000E08E0028E5D11EE0216815F8010B087337
:1022400006E020688168890706D515F8011B01732F
:10225000E08E401EE0860BE0B9F1000F14D0B9F11A
:10226000FF3F05D0FFF714FBA0EB080149450BD257
:10227000E08E0028E5D14B46012202212046CDF810
:10228000008001F045FA10B1032613E011E0424648
:102290004946204601F02CFA18B10126202060653D
:1022A00008E0A06818B92068C16880680090606D77
:1022B00000B1012684F851B084F850A0304665E79B
:1022C0002DE9F84F044690F8500000260A9F9A46E0
:1022D00093460D464FF0010801280ED0012084F8E6
:1022E0005000FFF7D5FA814694F851006168012843
:1022F0000CD0B1F5827F07D102E00220BDE8F88F53
:10230000A16809B9042801D00226BDE055B1BBF18E
:10231000000F07D0BAF1000F04D094F85100012843
:1023200002D004E00126AFE0052084F8510000202F
:102330006065C4F838B0A4F83EA0A4F83CA02563BA
:10234000A4F836A0A4F834A0206460642068016872
:10235000490603D4016841F040010160E068B0F52E
:10236000006F606804D0E8B3E08E01283BD06AE0DB
:1023700010B1E08E01282ED1216835F8020BC8601B
:10238000E08E401EE08626E0B8F1000F0DD0E08E12
:1023900058B120688168890707D535F8021BC160EC
:1023A000E08E401EE0864FF00008E08F58B12068B4
:1023B0008168C90707D0C0682BF8020BE08F401E68
:1023C000E0874FF00108781C05D0FFF761FAA0EB19
:1023D0000900B84246D2E08E0028D5D1E08F00280F
:1023E000D2D136E0FFE7216815F8010B0873E08EC3
:1023F000401EE08627E000BFB8F1000F0DD0E08E50
:1024000058B120688168890707D515F8011B017349
:10241000E08E401EE0864FF00008E08F58B1206843
:102420008168C90707D0C0680BF8010BE08F401E18
:10243000E0874FF00108781C05D0FFF729FAA0EBE0
:102440000900B8420ED2E08E0028D5D1E08F0028D6
:10245000D2D13B46012202212046CDF8009001F066
:1024600057F908B103260FE04A463946204601F0E5
:102470003FF918B101262020606505E0A06818B971
:102480002068C16880680090012084F85100002015
:1024900084F85000304631E74FF0E0210428086905
:1024A00003D020F004000861704740F00400FAE710
:1024B00010B5401EB0F1807F01D3012010BD4FF058
:1024C000E02460610F21601701F0F6F80020A061A0
:1024D00007202061002010BD7047704730B590F88C
:1024E0003820012A19D0012200F8382F0223437026
:1024F000D1E900342343D1E902452C4323430C693D
:1025000023434C69896923430B4350F8381C4B64BF
:10251000427000210170084630BD022030BD30B548
:1025200090F83820012A20D0012280F83820022398
:1025300080F8393003685C6824F070045C600368DC
:102540005C680D682C435C6003689C6824F0800420
:102550009C6003689C6849680C439C6080F8392043
:10256000002180F83810084630BD022030BD10B57B
:10257000040003D094F8390010B107E0012010BD29
:10258000002084F83800204600F00CF8022084F87F
:102590003900211D206801F0EDF9012084F839008F
:1025A000002010BD70470168CA6842F00102CA608D
:1025B0000068016841F00101016000207047704728
:1025C00070B50446006801694FF00005C9438907EA
:1025D00015D4C168C943890711D4E91E01610120DE
:1025E0002076206880698007204602D0FFF7E7FF49
:1025F00004E000F021F9204600F000FA257620687A
:102600000169C943490717D4C168C943490713D4AD
:102610006FF004010161022020762068806910F4C7
:10262000407F204602D0FFF7CAFF04E000F004F923
:10263000204600F0E3F9257620680169C9430907BF
:1026400016D4C168C943090712D46FF008010161AB
:10265000042020762068C0698007204602D0FFF75A
:10266000AEFF04E000F0E8F8204600F0C7F9257658
:1026700020680169C943C90617D4C168C943C9069E
:1026800013D46FF010010161082020762068C06922
:1026900010F4407F204602D0FFF791FF04E000F0E5
:1026A000CBF8204600F0AAF9257620680169C943D5
:1026B000C90708D1C168C943C90704D1891E01618E
:1026C000204600F0B9F920680169C943090609D418
:1026D000C168C943090605D46FF080010161204635
:1026E000FFF7FAFE20680169C943490609D4C168A9
:1026F000C943490605D46FF040010161204600F04E
:10270000A5F920680169C94389060BD4C168C9438A
:10271000890607D46FF0200101612046BDE87040B2
:10272000FFF7DBBE70BD0000F0B5374A016800243A
:1027300002250126354885B0914211D14FF44071F0
:102740000091CDE90154CDE903466946FEF7B4FF97
:102750004FF4C0400090CDE9015469462C4811E087
:10276000B1F1804F09D02B48814211D12020009037
:10277000CDE901546946284829E007210091CDE9B7
:1027800001546946CDE90346FEF796FF05B0F0BD5A
:102790002248814207D14FF470400090CDE90154A6
:1027A00069461F4813E01F4A1F48204F914211D12C
:1027B0000096CDE901546946CDE90345FEF77CFF5B
:1027C0004FF4E0500090CDE9015469463846CDE918
:1027D0000345D9E7164A914208D1E4210091CDE999
:1027E00001540321CDE903416946CDE711488142F7
:1027F000CCD140200090CDE901540920CDE903401F
:1028000069463846C0E70000000001400000024071
:102810000010024000040040000402400008004094
:10282000000C0240000C004000200240001C02404E
:102830000004014000180040704770B5044690F84D
:1028400038000D4601280DD0012684F8386002209A
:1028500084F8390042B1042A18D0082A2AD00C2A58
:102860004DD139E0022070BD206801F0EFF82068FA
:10287000816941F0080181612068816921F00401CA
:102880008161206881692A69114311E0206801F0A3
:1028900009F92068816941F40061816120688169DA
:1028A00021F480618161206881692A6941EA0221FD
:1028B000816124E0206801F027F92068C16941F0B6
:1028C0000801C1612068C16921F00401C16120686B
:1028D000C1692A69114311E0206801F045F92068B7
:1028E000C16941F40061C1612068C16921F480615E
:1028F000C1612068C1692A6941EA0221C16184F885
:102900003960002084F8380070BD10B5040003D091
:1029100094F8390010B107E0012010BD002084F8C0
:102920003800204600F00CF8022084F83900211D00
:10293000206801F01FF8012084F83900002010BD44
:1029400008B501682648274A814205D1106840F041
:1029500001001060106812E02248001FB1F1804FA2
:1029600008D0214B99420ED1016841F0020101606B
:10297000006826E0016841F001010160006800F094
:102980000100009008BD194B994207D1016841F040
:1029900004010160006800F00400F2E7144B994262
:1029A00007D1016841F008010160006800F00800EB
:1029B000E7E7104B994207D1106840F00200106021
:1029C000106800F00200DCE70B4A9142DAD101689E
:1029D00041F040010160006800F04000D1E70000D4
:1029E000000001404438024000040040000800405C
:1029F000000C004000040140001800407047000037
:102A000010B504460068012201F014F80849206856
:102A1000884202D00749884203D1416C41F4004109
:102A200041642068016841F001010160002010BD8F
:102A3000000001400004014000680349884201D1C0
:102A4000FEF72CBF70470000001000407047704731
:102A500070B5026804461068D168536910F00F0F12
:102A600050D003F0010501F4907635435DD0C207E4
:102A700005D0CA0503D5E26B42F00102E2634207CA
:102A800005D5DA0703D0E26B42F00202E263820767
:102A900005D5DA0703D0E26B42F00402E2630207D5
:102AA00005D5DA0703D0E26B42F00802E263E26B7D
:102AB000002A33D0800604D5880602D5204601F0CE
:102AC00091F820684069E16BC0F38010090700D4D9
:102AD00028B3204601F078F82068416949061AD5E4
:102AE000416921F040014161606BA0B11B49016562
:102AF000606BFEF764FC002810D0606B016DBDE8D0
:102B000070400847830610D58B060ED52046BDE8D9
:102B1000704001F067B82046FFF799FF70BD20466E
:102B2000FFF795FF0020E06370BD030606D50B0696
:102B300004D52046BDE8704001F0F0B94006F3D559
:102B40004806F1D5D168204621F04001D16020210E
:102B500084F8391000F063F970BD0000B93B00083B
:102B600070B5040004D094F83900002510B106E0D7
:102B7000012070BD84F83850204600F023F824204E
:102B800084F839002068C16821F40051C1602046F2
:102B900001F06EF82068016921F49041016120681C
:102BA000416921F02A0141612068C16841F4005166
:102BB000C160E563202084F8390084F83A000020E1
:102BC00070BD00002DE9F04F0546D0F800C002208E
:102BD000DFF818820024DFF818A20121032207235E
:102BE0008706460287B0C4453AD1DAF8008048F03B
:102BF0001008CAF80080DAF800C00DF104080CF0E3
:102C0000100CCDF814C04FF0C00CCDF800C088E80F
:102C10000F0069467748FEF74FFDDFF8E0817649FF
:102C20004046C8F80010C0E90174C0E903468915A0
:102C3000C8F81440C0E90641C8F82040C8F824404C
:102C4000FEF7A4FC08B1FDF72DFFC5F83480002283
:102C500005212520C8F83850FEF7B4FE252046E0AF
:102C6000DFF89C81DFF88891DFF898B1A9F10409B9
:102C7000C44541D1D9F8008048F40038C9F8008033
:102C8000D9F800C00DF104080CF4003CCDF814C0D4
:102C90004FF0600CCDF800C088E80F006946584638
:102CA000FEF70AFDDFF85481574908F160084046F5
:102CB000C8F80010C0E90174C0E90346C8F8144020
:102CC000C8F81840C8F81C40C8F82040C8F824408C
:102CD000FEF75CFC08B1FDF7E5FEC5F83480002284
:102CE00011462620C8F83850FEF76CFE2620FEF765
:102CF0005DFE07B0BDE8F08FDFF81081C4453ED11E
:102D0000D9F8008048F48028C9F80080D9F800C0BC
:102D10000DF104080CF4802CCDF814C04FF4407C65
:102D2000CDF800C088E80F0069465846FEF7C4FC9D
:102D3000DFF8C880344908F1C00860394046C8F857
:102D40000010C0E90174C0E90346C8F81440C8F88F
:102D50001840C8F81C40C8F82040C8F82440FEF7C6
:102D600015FC08B1FDF79EFEC5F83480002211461F
:102D70002720C8F83850FEF725FE2720B7E7244B58
:102D80009C45B6D1DAF8007047F02007CAF8007009
:102D9000DAF8003001AF03F0200305934FF48443C9
:102DA000009387E807000820049069461948FEF759
:102DB00083FC1148184F183838608005C7E90104B2
:102DC000C7E903467C61BC61FC613C6238467C62B9
:102DD000FEF7DCFB08B1FDF765FE6F6300220521FD
:102DE0004720BD63FEF7EEFD472080E7001001405D
:102DF0004438024000040240406402408040002009
:102E000000440040000C024088600240004800403E
:102E10000014014000180240A04100207047704794
:102E2000FEE7000070B500211248FFF7E9FD124CE3
:102E3000012204212046FEF725FD0122082120461B
:102E4000FEF720FD012210212046FEF71BFD012286
:102E500020212046FEF716FD084D094CFA2600BF3A
:102E600001F0E8FA2878012801D02660F8E7002070
:102E7000206070BD443F0020001C0240D0000020B4
:102E8000341800400F4810B50D490160052141601C
:102E900000214FF400328160C0E903125201C0E901
:102EA00005210122C0E9072141628162C162FEF76A
:102EB00027F8002803D0BDE81040FDF7F3BD10BD92
:102EC00000640040EC420020104810B50E4901603B
:102ED0000521416000214FF04072C0E902124FF419
:102EE000003202615201C0E905210122C0E9072137
:102EF00041628162C162FEF703F8002803D0BDE899
:102F00001040FDF7CFBD10BD006800402C430020ED
:102F1000194808B5016841F480010160016801F4B5
:102F200080010091016841F40011016000680022F5
:102F300000F40010009005210C20FEF743FD0C204A
:102F4000FEF734FD002205211020FEF73BFD102086
:102F5000FEF72CFD002205213920FEF733FD392034
:102F6000FEF724FD002205213A20FEF72BFDBDE8E7
:102F700008403A20FEF71ABD3038024000B595B03F
:102F8000142215496846FDF78BF90021684601F0C7
:102F900033FE1249142208600F4905A81431FDF7C9
:102FA0007FF9002105A801F027FE0B4914222831E2
:102FB0000AA8FDF775F900210AA801F01DFE0649CF
:102FC00014223C310FA8FDF76BF900210FA801F086
:102FD00013FE15B000BD0000505900086400002029
:102FE0002DE9F04F6E4887B00024016841F00101DF
:102FF0000160016801F001010591016841F00201E1
:103000000160016801F002010591016841F00401CD
:103010000160016801F004010591016841F00801B7
:103020000160016801F008010591016841F010019B
:103030000160016801F010010591016841F0200173
:103040000160016801F020010591016841F0400133
:103050000160016801F040010591016841F08001C3
:1030600001600068002200F08000059008214D48B2
:10307000FEF708FC012204214A48FEF703FC4FF446
:103080000057002239464848FEF7FCFB0022402149
:103090004648FEF7F7FBDFF818B14FF4C06800228E
:1030A00041465846FEF7EEFBBE10002231463D4831
:1030B000FEF7E8FB4FF48049002249463B48FEF703
:1030C000E1FB4FF4FF7A012251463748FEF7DAFB65
:1030D0000C2000900125CDE9015469463148039444
:1030E000FEF7EAFA022000903248CDE90105694670
:1030F0002C48FEF7E1FA0097CDE9015469462A48C9
:103100000394FEF7D9FA4FF49060CDE900046946C4
:1031100029480294FEF7D0FA40200090CDE90154EE
:10312000694622480394FEF7C7FACDF80080CDE93E
:103130000154694658460394FEF7BEFA0096CDE95D
:103140000154694617480394FEF7B6FACDF800908B
:10315000CDE90154694615480394FEF7ADFACDF860
:1031600000A0CDE9015469460F480394FEF7A4FA84
:103170003C200090CDE90154694610480394FEF7C5
:103180009BFA01F08DF9002231460648FEF77AFBE2
:10319000002202210448FEF775FB07B0BDE8F08F5E
:1031A0003038024000100240001802400014024073
:1031B0000004024000002110000C0240001C0240EC
:1031C000104810B50E4901604FF482714160002132
:1031D0008160C1604FF400720161C0E905123022C4
:1031E000C0E90721416281620A21C162FEF722FF24
:1031F000002803D0BDE81040FDF754BC10BD00000E
:10320000003001403C420020104810B50E490160DA
:103210004FF48271416000218160C1604FF40072FF
:103220000161C0E905123022C0E9072141628162D3
:103230000A21C162FEF7FEFE002803D0BDE810405F
:10324000FDF730BC10BD000000500140944200204A
:1032500010B524488AB02249016059210024C0E9F0
:10326000011440F6C311C0E90314FFF74EFB08B187
:10327000FDF718FC079407A91A480894FFF74FF9BF
:1032800008B1FDF70FFC602000904FF47A70CDE993
:1032900001040022694613480494FFF7CEFA08B1EE
:1032A000FDF700FC042269460E48FFF7C6FA08B194
:1032B000FDF7F8FB082269460A48FFF7BEFA08B195
:1032C000FDF7F0FB0C2269460648FFF7B6FA08B195
:1032D000FDF7E8FB0348FFF727FA0AB010BD00002E
:1032E00000000140DC3D002010B523488AB04FF0BB
:1032F0008041016059210024C0E9011440F6C31146
:10330000C0E90314FFF701FB08B1FDF7CBFB0794FD
:1033100007A919480894FFF702F908B1FDF7C2FBA5
:10332000602000904FF47A70CDE9010400226946D4
:1033300011480494FFF781FA08B1FDF7B3FB0422AA
:1033400069460D48FFF779FA08B1FDF7ABFB082293
:1033500069460948FFF771FA08B1FDF7A3FB0C2293
:1033600069460548FFF769FA08B1FDF79BFB02487B
:10337000FFF7DAF90AB010BD183E002010B51C485E
:103380008AB01A49016059210024C0E9011440F6AD
:10339000C311C0E90314FFF7B8FA08B1FDF782FBC7
:1033A000079407A912480894FFF7B9F808B1FDF788
:1033B00079FB602000904FF47A70CDE9010400227F
:1033C00069460B480494FFF738FA08B1FDF76AFB29
:1033D000042269460648FFF730FA08B1FDF762FBA0
:1033E0000348FFF7A1F90AB010BD00000004004037
:1033F000543E002010B521488AB01F490024C0E97E
:1034000000148460C4600461FFF77FFA08B1FDF71F
:1034100049FB079407A919480894FFF780F808B1F9
:10342000FDF740FB6020CDE90004029400226946CC
:1034300012480494FFF701FA08B1FDF733FB0422A8
:1034400069460E48FFF7F9F908B1FDF72BFB082292
:1034500069460A48FFF7F1F908B1FDF723FB0C2292
:1034600069460648FFF7E9F908B1FDF71BFB034879
:10347000FFF75AF90AB010BD00080040903E002046
:1034800010B524488AB02249016059210024C0E9BE
:1034900001144FF4FA61C0E90314FFF736FA08B1DA
:1034A000FDF700FB079407A91A480894FFF737F8BF
:1034B00008B1FDF7F7FA602000904FF47A70CDE97B
:1034C00001040022694613480494FFF7B6F908B1D5
:1034D000FDF7E8FA042269460E48FFF7AEF908B195
:1034E000FDF7E0FA082269460A480194FFF7A5F9BA
:1034F00008B1FDF7D7FA0C2269460648FFF79DF997
:1035000008B1FDF7CFFA0348FFF70EF90AB010BD76
:10351000000C0040CC3E002010B52B4890B029494B
:103520000024C0E900148460C46004614461FFF7B2
:10353000ECF908B1FDF7B6FA0E940EA922480F94E3
:10354000FEF7EDFF08B1FDF7ADFA07940894099472
:103550004FF400500A94CDE90B4007A91A480D9486
:10356000FEF7BCFF08B1FDF79DFA6020CDE900042D
:103570000294039404940594002269461248069428
:10358000FFF75BF908B1FDF78DFA042269460E4892
:10359000FFF753F908B1FDF785FA082269460A4892
:1035A000FFF74BF908B1FDF77DFA0C226946064892
:1035B000FFF743F908B1FDF775FA0348FFF7B4F8D0
:1035C00010B010BD00040140083F00200D4810B5A8
:1035D0000B4901600C49416000214FF48062816019
:1035E000C0E903120C22C0E90521C161FFF7B8FA56
:1035F000002803D0BDE81040FDF754BA10BD00000C
:1036000000100140803F0020A08601000C4810B54A
:103610000A4901604FF4E1314160002181600C22D0
:10362000C160C0E904128161C161FFF799FA002805
:1036300003D0BDE81040FDF735BA10BD004400408E
:10364000C03F00200C4810B50A4901604FF4E13139
:103650004160002181600C22C160C0E904128161D7
:10366000C161FFF77DFA002803D0BDE81040FDF7E7
:1036700019BA10BD00480040004000200C4810B5A9
:103680000A4901604FF4E1314160002181600C2260
:10369000C160C0E904128161C161FFF761FA0028CD
:1036A00003D0BDE81040FDF7FDB910BD0014014086
:1036B00040400020FEE770470907090E002806DA9F
:1036C00000F00F0000F1E02080F8141D704700F1B9
:1036D000E02080F80014704730B4034C4466034C7B
:1036E000846630BC01F092BB0D4E00081B4E0008F2
:1036F00038B50B46009204460022802100F008F8FD
:10370000002804D0606D40F020006065032038BDC3
:103710002DE9F0411D4617460E460446DDF8188097
:1037200035E0681C33D02DB1FEF7B2F8A0EB0800ED
:10373000A8422CD32068416821F0E0014160606814
:10374000B0F5827F0BD1A068B0F5004F02D0B0F584
:10375000806F04D12068016821F040010160A06AF7
:10376000B0F5005F0AD1206801684DF6FF72114084
:1037700001602068016841F400510160012084F873
:103780005100002084F850000320BDE8F08120683B
:10379000806836EA000004D00020B842C1D1002081
:1037A000F3E70120F9E700001CB51E49144600EEBE
:1037B000900AB1F90620098AF8EEE00A114400EEF9
:1037C000101A1948B8EEC00A01F03EFA174800EE88
:1037D000904AB0F90000F8EEE00A00EE100A144832
:1037E000B8EEC00A01F030FA01210020CDE9000155
:1037F0000F48002290ED0F0ABDEEC00A10EE100A2D
:1038000003B2094890ED0F0ABDEEC00A10EE100A8F
:1038100001B2084801F0A6FCBDE81C400A2001F0F6
:10382000D5B90000DC4400203C4500200C450020B8
:10383000A8450020EC4200204FF40064094D0A4FD7
:10384000E60000BF00F0F6FD012221462846FEF703
:1038500019F8002231463846FEF714F801F0E8F96D
:10386000F0E70000001002400014024001F0BAB975
:1038700030B5264893B00025016841F080510160C1
:10388000006800F0805011902148016841F44041E7
:1038900001600068022400F4404011900120009073
:1038A00001908005CDE9064006200890B420CDE9BE
:1038B000090404200B906846FEF74AFA00B1FEE7BF
:1038C000FEF7B2F800B1FEE70CA90F2081E8310045
:1038D0004FF4A0500F904FF48050109005210CA889
:1038E000FEF7E8F800B1FEE7FEF7C2F94FF47A718F
:1038F000B0FBF1F0FEF7DCFD0420FEF7CDFD002269
:103900000F21501EFEF75EF813B030BD4038024064
:10391000007000401048016841F4700101600F48D8
:10392000016841F0010101600C4A00210832116078
:1039300002680B4B1A400260031D0A4A1A600268B3
:1039400022F48022026005480C30016002495806CA
:10395000803908607047000088ED00E000380240C0
:10396000FFFFF6FE103000240148FEF729BE0000DC
:1039700000420020F0B50268234B244D244E254F11
:10398000254C4FF0804C984209D0604507D0A842A2
:1039900005D0B04203D0B84201D0A04204D122F0F9
:1039A000700E4A6842EA0E0298421BD0604519D058
:1039B000A84217D0B04215D0B84213D0A04211D0BF
:1039C000164DA8420ED0164DA8420BD0154DA84258
:1039D00008D0154DA84205D0144DA84202D0144D70
:1039E000A84203D122F44075CA682A4302608A685B
:1039F000C2620A688262984201D0A04201D109697C
:103A0000016301214161F0BD00000140000400405C
:103A100000080040000C004000040140004001404C
:103A2000004401400048014000180040001C0040D4
:103A30000020004010B50123046A8B409C430462BF
:103A4000036A8A401343036210BD000030B5026A66
:103A500022F001020262026A436884690D6824F060
:103A60007304254322F002048A6822430B4CA042CF
:103A700002D00B4CA0420BD122F00804CA6823F4F8
:103A8000407322434C6922F004021C438B69234398
:103A90004360856149684163026230BD00000140B6
:103AA0000004014030B5026A22F010020262026A8C
:103AB000436884690D6824F4E64444EA05248D686B
:103AC00022F0200242EA05120D4DA84202D00D4D0F
:103AD000A8420ED1CD6822F0800242EA05124D695B
:103AE00023F4406343EA85038D6922F0400243EAF0
:103AF00085034360846149688163026230BD0000D0
:103B0000000001400004014030B5026A22F48072D6
:103B10000262036A4268C46923F4007324F07305E7
:103B20000C682C438D6843EA05230D4DA84202D052
:103B30000C4DA8420ED1CD6823F4006343EA05235F
:103B40004D6922F4405242EA05128D6923F48063E4
:103B500042EA05124260C4614968C163036230BD34
:103B6000000001400004014030B5026A22F4805296
:103B70000262046A4268C3690D6823F4E64343EABB
:103B800005238D6824F4005444EA0534084DA84206
:103B900002D0084DA84204D14D6922F4804242EA85
:103BA00085124260C36149680164046230BD00004F
:103BB000000001400004014010B5806B0021C18568
:103BC000C184FEF744FF10BD0168CA6822F49072F8
:103BD000CA6001684A6922F001024A61202180F826
:103BE0003A10704710B590F83A10222901D00220FF
:103BF00010BD8168B1F5805F11D0016900290168AD
:103C00001FD0496801F07F03816A4A1C82620B70F1
:103C1000C18D491E0904090CC18518D026E002692E
:103C2000816A002A0268526805D0D2B20A80816A8D
:103C3000491C8162ECE7C2F308020A80816A891C90
:103C4000F7E74A68816A4B1C83620A70E0E7016803
:103C5000CA6822F49072CA6001684A6922F00102BF
:103C60004A61202180F83A10FFF7D8F8002010BDF3
:103C70002DE9F04104460068016921F44052E168F1
:103C8000114301612168C86849F20C6290432369BD
:103C9000A268E5691A4363692B431A430243CA6069
:103CA0002168486920F44072A06910434861E169C5
:103CB0006425B1F5004F9748974A21684FF03208C4
:103CC0003FD0914201D081427CD1FDF7EFFF00EB64
:103CD000C00101EB001061688900B0FBF1F6FDF74F
:103CE000E5FF00EBC00101EB001061688900B0FB4B
:103CF000F1F0B0FBF5F06FF01801484306EB8001DE
:103D000008EB0110B0FBF5F000F0F006FDF7CEFF78
:103D100000EBC00101EB001061688900B0FBF1F01D
:103D2000B0FBF5F006EB0016FDF7C0FF00EBC0019D
:103D300001EB001061688900B0FBF1F7FDF7B6FFF9
:103D4000D2E0914201D081423DD1FDF7AFFF00EBBF
:103D5000C00101EB001061684900B0FBF1F0B0FB5D
:103D6000F5F00601FDF7A2FF00EBC00101EB00102A
:103D700061684900B0FBF1F7FDF798FF00EBC00167
:103D800001EB001061684900B0FBF1F0B0FBF5F009
:103D90006FF01801484307EB800108EBC100B0FB4E
:103DA000F5F000F0F80006EB4006FDF77FFF00EBB2
:103DB000C00101EB001061684900B0FBF1F7FDF7AD
:103DC00075FF3CE055E0FDF759FF00EBC00101EB4A
:103DD000001061684900B0FBF1F0B0FBF5F006019E
:103DE000FDF74CFF00EBC00101EB001061684900DA
:103DF000B0FBF1F7FDF742FF00EBC00101EB001053
:103E000061684900B0FBF1F0B0FBF5F06FF018010C
:103E1000484307EB800108EBC100B0FBF5F000F070
:103E2000F80006EB4006FDF729FF00EBC00101EBAF
:103E3000001061684900B0FBF1F7FDF71FFF00EBD0
:103E4000C00101EB001061684900B0FBF1F0B0FB6C
:103E5000F5F06FF01801484307EB800108EBC10053
:103E6000B0FBF5F000F00700216830448860BDE841
:103E7000F081FDF703FF00EBC00101EB001061686A
:103E80008900B0FBF1F6FDF7F9FE00EBC00101EB94
:103E9000001061688900B0FBF1F0B0FBF5F06FF045
:103EA0001801484306EB800108EB0110B0FBF5F068
:103EB00000F0F006FDF7E2FE00EBC00101EB0010A0
:103EC00061688900B0FBF1F0B0FBF5F006EB00167D
:103ED000FDF7D4FE00EBC00101EB00106168890022
:103EE000B0FBF1F7FDF7CAFE00EBC00101EB0010DB
:103EF00061688900B0FBF1F0B0FBF5F06FF01801DC
:103F0000484307EB800108EB0110B0FBF5F000F02F
:103F10000F00A9E7001401400010014090F839108B
:103F2000212901D0022070478168B1F5805F016AC4
:103F30000BD04A1C0262026809785160C18C491E8C
:103F40000904090CC1840ED017E009880268C1F386
:103F50000801516001690029016A02D0491C01620F
:103F6000ECE7891CFBE70168CA6822F08002CA609E
:103F70000068C16841F04001C16000207047000046
:103F800010B5044801F01AF9BDE810400148FEF7E9
:103F90005FBD0000803F00200148FEF759BD0000D2
:103FA000C03F00200148FEF753BD00000040002044
:103FB0000148FEF74DBD000040400020FEE72DED1A
:103FC000020B019820F0004001909DED000B02B023
:103FD000704702E008C8121F08C1002AFAD17047D2
:103FE0007047002001E001C1121F002AFBD1704779
:103FF000D0ED000AF4EEC00AF1EE10FA01DD80ED1A
:10400000000AD0ED000AB1EE400AF4EEC00AF1EE6B
:1040100010FA01D280ED000A7047000010B50A4C7A
:104020002088C0040ED5012000F0D0FD2088C004F7
:10403000F9D406490888C0F30032C2F1010262F3E4
:104040000C30088010BD0000D4000020D2000020F9
:1040500038B50F4800210068026842680092C268C3
:1040600042F01002C2600A4C0A4A94F83A00202832
:104070000DD13223A262A385E1632168606B091D23
:10408000FDF7ECFA2068416941F04001416138BD1B
:10409000803F0020144A002030B5448984814A6B57
:1040A0006FF00405928A52BA42814B6BDB8A5BBA8D
:1040B000438003804B6B1B8B5BBA1BB293FBF5F306
:1040C0008380496B131BB3F5805F897E0172416960
:1040D00001DD491E03E013F5805F01DA491C4161EF
:1040E00002EB4131028A891A816130BD10B559480D
:1040F0002DED0A8BB0F90610B0F908009FED569B24
:10410000DFED57BA574C9FED588A9FED58BADFED57
:1041100058AA9FED58AADFED588A00294EDA9FED84
:1041200057CA00282ADA91FBF0F0FCF784F941EC39
:10413000100BFFF744FF53EC192B51EC100BFCF75D
:10414000A5F90AD8C4ED01BA84ED028A9FED4C0AA4
:1041500084ED030A9FED4B0A0BE09FED4B0A84EDC3
:10416000010A9FED4A0A84ED020A84ED03BA9FED2D
:10417000480A84ED040ABDEC0A8B10BDFBDD91FBFF
:10418000F0F0FCF758F941EC100BFFF718FF53EC77
:10419000192B51EC100BFCF779F984ED01CA06D804
:1041A00084ED028AC4ED03AA9FED3A0AE1E784EDAB
:1041B00002AAC4ED038A9FED380ADAE7DBDD0028A6
:1041C0009FED36CA22DD91FBF0F0FCF734F941ECAB
:1041D000100BFFF7F4FE53EC192B51EC100BFCF70E
:1041E00055F90AD89FED2E0A84ED010AC4ED02AA02
:1041F00084ED038AC4ED04BABDE79FED2A0A84ED7D
:10420000010AC4ED028A84ED03AAB2E7B3DA91FB96
:10421000F0F0FCF710F941EC100BFFF7D0FE53EC77
:10422000192B51EC100BFCF731F984ED01CA08D8B9
:104230009FED1D0A84ED020A84ED038A9FED1B0A9F
:1042400097E79FED1B0A84ED02BA84ED030A9FED08
:10425000190A8EE73C4A0020000000000000F03FF1
:104260000AD7A3BB70000020A8C64BBEE17A543F1A
:10427000355E7ABF68910DBFE17A54BF0AD7A33B80
:10428000BE9F7A3F4ED111BC6F1203BC7B140EBF90
:104290006F1203BBA69B443C99BB16BB0AD7233BBA
:1042A00052499D3A99BB163B355E7A3F6F12033CEB
:1042B000295C0FBFBC74933B10B530216A2000F01D
:1042C00067FA0A20FDF7EDF90D21242000F060FACD
:1042D0000A20FDF7E6F90E21282000F059FA0A20FD
:1042E000FDF7DFF98E21312000F052FA0A20FDF7A8
:1042F000D8F901210B2000F07BF80A20FDF7D1F955
:10430000002000F059F8102801D0012010BD012133
:104310000B2000F06DF80A20FDF7C3F900210A20F8
:1043200000F066F80A2000F047F808B1022010BD3E
:104330000A20FDF7B6F900210B2000F059F80B20F8
:1043400000F03AF808B1032010BD0A20FDF7A9F9E2
:104350002421412000F04CF8412000F02DF82428C1
:1043600001D0042010BD0A20FDF79BF9C021422096
:1043700000F03EF8422000F01FF8C02801D00520D0
:1043800010BD0A20FDF78DF900212A2000F000FA67
:104390000A20FDF786F90021342000F0F9F90A20FF
:1043A000FDF77FF9062203210E2000F0F7F86420C4
:1043B000FDF777F9002010BD10B50146322000F05E
:1043C000E7F90A20FDF76DF98021342000F0E0F9CB
:1043D0000A20FDF766F9352000F07AF9044600213D
:1043E000342000F0D5F90A20FDF75BF9204610BD16
:1043F00070B50D46044600212A2000F0C9F90220BC
:10440000FDF74FF92146292000F0C2F90220FDF7FF
:1044100048F92946642000F0BBF90220FDF741F974
:1044200081212A2000F0B4F9BDE870400A20FDF790
:1044300038B9000018481849027A1848497A012A00
:1044400004D0032A0DD0022A18D01DE0012906D07D
:10445000022903D0032917D1022100E003210170B2
:1044600012E0012904D0022906D003290CD101E071
:104470000421F4E70521F2E70621F0E7012905D040
:10448000022907D0032903D0FFF7C8BD0721E6E7BB
:104490000821E4E70921E2E7264A0020D0000020B5
:1044A00010B50122D1020548FDF7ECF90122BDE863
:1044B000104091030248FDF7E5B9000000100240EA
:1044C00000140240FDF7F2F9FFF7D2F9FEF788FD7C
:1044D000FEF71EFDFEF7D6FCFEF7F6FCFEF770FEBB
:1044E000FEF792FEFFF772F8FFF790F8FFF7AAF8D1
:1044F000FFF7C4F8FEF7ACFEFEF7F6FEFEF73EFF50
:10450000FEF778FFFEF7BCFFFFF706F8FFF7A0FD08
:1045100000F00EFAFEF786FC00F00EF8FFF7E6FD5D
:10452000FEF72CFD00F059FBFEE701460020842930
:1045300000D0C81C7047000030B585B06420FDF77E
:10454000B0F8752000F0C4F81249002414228870D5
:1045500011496846FBF7A4FE4FEA0D0505EB440040
:10456000417815F8140000F013F90120FDF799F8CF
:10457000641CE4B20A2CF1D3032000F004F90220F9
:1045800000F0FCF8FFF798FE00F050F805B00020AE
:1045900030BD0000700000201466000870B50E46A3
:1045A000044601461546282000F0F2F80220FDF7E7
:1045B00078F80A21292000F0EBF80220FDF771F8C5
:1045C0000121642000F0E4F80220FDF76AF844F0CD
:1045D0008001252000F0DCF80220FDF762F831466A
:1045E000262000F0D5F80220FDF75BF803213420E7
:1045F00000F0CEF80220FDF754F80321672000F008
:10460000C7F80220FDF74DF881212A2000F0C0F8FC
:104610000620FDF746F845F08001272000F0B8F8A5
:10462000BDE870400220FDF73CB800002DE9F041E4
:10463000264E002706F10E044FF496750E222349EC
:104640003B2000F06DF83188A08A49BA0844A08266
:104650007188E08A49BA0844E082B188208B49BA5F
:10466000084420833189608B49BA0844608371898A
:10467000A08B49BA0844A083B189E08B49BA0844A9
:10468000E0830520FDF70DF87F1CAF42D6DBB4F9BF
:10469000140090FBF5F0A082B4F9160090FBF5F041
:1046A000E082B4F9180090FBF5F02083B4F91A0009
:1046B00090FBF5F000B2608390FBF5F0A083B4F9B5
:1046C0001E0090FBF5F0E083BDE8F081704A002009
:1046D000F8B5104E0446002240213046FDF7D2F8CE
:1046E00044F080000C4C3725621C20700123511EC1
:1046F0000A480095FDF7E4FD621C0123511E07489E
:104700000095FDF7DDFD012240213046FDF7BAF8A6
:104710006078F8BD00140240700000209442002030
:10472000F8B5134F15460E46044600224021384680
:10473000FDF7A8F80F4944F0800037240870523183
:10474000A1F151020870012352390B480094FDF782
:10475000B7FD08492B463246523107480094FDF711
:10476000AFFD012240213846FDF78CF80020F8BD4E
:10477000001402407000002094420020C006010E88
:104780001C2000F005B8C006010E1B20AFF300800E
:10479000F8B5114F0E460446002240213846FDF779
:1047A00071F804F07F000D4C3725621C2070012346
:1047B000511E0B480095FDF783FD2670621C0123F6
:1047C000511E07480095FDF77BFD01224021384628
:1047D000FDF758F80020F8BD0014024070000020DA
:1047E0009442002030B58BB0044600200121039094
:1047F0000490CDE906010E25CDE90815059000903D
:104800000190029069462046FCF746FA6946204628
:104810000595FCF741FA0848844203D10748206314
:104820001C3060630648844204D104484030206351
:104830001C3060630BB030BDEC4200202C440020E3
:104840002C4300202DE9F047002000F02DF8DFF880
:10485000549000245FF0000609EBC60000EBD40082
:10486000002507784FFA86F8380604EB050041B2B8
:1048700001D5012200E00022404600F035F878061C
:104880006D1C070EEDB2082DEED3761CF6B2802E0D
:10489000E2D30834E4B2402CDCD3BDE8F04700F0AA
:1048A000D9B8000014620008F0B500210D4BFF26B6
:1048B0000C46002201280FD003EBC20580B16F5CCB
:1048C000C7F1FF076F54521CD2B2802AF2D3491CA1
:1048D000C9B20829EDD3F0BD03EBC2056E54F2E76F
:1048E0006C54F0E71446002070B5802817D20029D8
:1048F00015DB3F2913DCCB1701EB5375C5F3C70359
:1049000025F007050124094E491B8C4006EBC00029
:10491000012A05D0C15C022A05D0A143C15470BD53
:10492000C15C2143FAE76140F8E70000144600202B
:1049300070B5474D4FF48064002221462846FCF7AD
:10494000A1FF4FF4FA70FCF7ACFE01222146284685
:10495000FCF798FF0021AE2000F022F90021084664
:1049600000F01EF90021102000F01AF9002140206B
:1049700000F016F90021812000F012F90021CF206B
:1049800000F00EF90021A12000F00AF90021C82052
:1049900000F006F90021A62000F002F90021A8206D
:1049A00000F0FEF800213F2000F0FAF80021D320AB
:1049B00000F0F6F80021084600F0F2F80021D520BA
:1049C00000F0EEF80021802000F0EAF80021D92064
:1049D00000F0E6F80021F12000F0E2F80021DA20F2
:1049E00000F0DEF80021122000F0DAF80021DB20D0
:1049F00000F0D6F80021402000F0D2F8002120205D
:104A000000F0CEF80021022000F0CAF800218D202D
:104A100000F0C6F80021142000F0C2F80021A42004
:104A200000F0BEF80021A62000F0BAF80021AF2067
:104A300000F0B6F80021AF2000F0B2F80020FFF738
:104A400033FFBDE870400021084600F01DB80000AB
:104A50000004024070B50B4E00242146002000F0F7
:104A600013F8002506EBC5000121005D00F098F861
:104A70006D1CEDB2802DF5D3641CE4B2082CECD390
:104A800070BD00001446002010B5801CC4B2B031C7
:104A9000C8B2002100F084F8102040EA1410002170
:104AA00000F07EF804F0F000BDE81040002100F0B6
:104AB00077B800002DE9F04F01EB410100EB400019
:104AC00049068006040E203A4FEA1169D0B2164911
:104AD00000EB4000A046002501EB800B00261BF8F0
:104AE00005704FFA89FA380601D5012200E000224C
:104AF00061B25046FFF7F8FE7806641C070EE4B278
:104B0000A4EB08000C2809D0761CF6B2082EEAD3D4
:104B10006D1CEDB20C2DE1D3BDE8F08F09F1010061
:104B2000444600F0FF09F3E7A05900082DE9F047DB
:104B3000002699461746884682463446089D2AE054
:104B4000281B401E0A22C1B2012000E05043491E2A
:104B5000C9B2FBD2B7FBF0F00A21B0FBF1F201FBC6
:104B6000120026B9691E8C4201DA30B101263030BC
:104B7000C2B208EB0400C1B208E008EB0400B9F1CE
:104B8000000FC1B201D0302200E020225046FFF7D2
:104B900091FF641CE4B2AC42D2D3BDE8F0870000C0
:104BA00013B508484FF4007309B1012200E0002258
:104BB0001946FCF767FE0A23012269460248FDF701
:104BC000CBFA1CBD000402403C42002010B500B9E5
:104BD000012000F0D9FB002010BD10B500F008FC4A
:104BE000002010BD10B500F0D1FD012803D0BDE8B4
:104BF000104000F0D7BC10BD30B5044685B00D465E
:104C0000B0F90800FFF791FC002104AA0090CDE95B
:104C100001210391208A2B4682B2D4E9001000F0D2
:104C2000D7FC012802D0002005B030BD0498FBE776
:104C300004494FF080500860BFF34F8FBFF36F8F70
:104C40000020704704ED00E000B530EEC01A80EDA2
:104C5000080AC0ED050A80ED0B1AD0ED141A0146C2
:104C60009FED692A30EEC00AF5EEC01AB1EE400A97
:104C7000F1EE10FA0ED0B5EEC01AF1EE10FA02DD28
:104C8000F0EE410A01E0F0EE400AF4EEE10AF1EE46
:104C900010FA12DCD1ED150AF5EEC00AF1EE10FAA9
:104CA0000ED0B5EEC01AF1EE10FA01DDB0EE410AF9
:104CB000B4EEE00AF1EE10FA02D2B0EE420A00BD04
:104CC000886D01F13402032802D0042838D07AE03C
:104CD00091ED000A104620EE010A81ED0C0A91EDDB
:104CE0000D0AD1ED010A00EE810A81ED0D0A91ED68
:104CF0000A0AD1ED020A31EE400A20EE200A81EDC7
:104D00000E0A91ED180AB8EE400AFFF771F991ED1D
:104D10000C0AD1ED0D0A01F13C0030EE200AD1ED74
:104D20000E0A30EE200A81ED0F0A91ED170AB8EE57
:104D3000400AFFF75DF991ED0F0A81ED100A42E09C
:104D400091ED0A0AD1ED001A104671EE400A60EEAC
:104D5000A10AC1ED0C0AD1ED010A60EE810AC1ED94
:104D60000D0AF0EE000A00EE601A91ED090AD1ED8D
:104D7000020A31EE000A20EE200A81ED0E0A91EDC2
:104D8000180AB8EE400AFFF733F991ED0C0AD1ED9D
:104D90000D0A01F1480030EE200AD1ED0E0A30EE86
:104DA000200A81ED110AD1ED130A30EE800A81ED5F
:104DB000120A91ED170AB8EE400AFFF719F991EDC2
:104DC000120A81ED130A91ED0A0A81ED090A91EDAB
:104DD0000B0A81ED0A0A91ED070A81ED060A91EDB1
:104DE000080A81ED070A91ED040A81ED030A91EDAD
:104DF000050A81ED040A886D032802D091ED120A9C
:104E000000BD91ED0F0A00BD0000000000F1580C3C
:104E10008CE80E0080EC030A704780EC030A7047B0
:104E200070B50B4C054620684560E06821688542F6
:104E300005D2606BBDE87040091D00F00FBA206B11
:104E4000091D00F00BFAA06A854200D2A56270BD70
:104E50000800002070B5124E124C1AE000F0FCFA67
:104E60003068D0B100F006FD00F01CFAF068C568AB
:104E7000281D00F0D3F9A068401EA0606068401EA5
:104E8000606000F02FFA286B00F040FA284600F02E
:104E90003DFA60680028E1D170BD00F0EBFCF8E756
:104EA000B40100200800002010484FF47051420760
:104EB00006D0C01D0D4920F00700411AC1F5705100
:104EC0000B4A00230144C2E900030839103A21F0DB
:104ED000070111604B600B600B1AC0E9001393606F
:104EE0004FF000405360D06070470000DC010020AC
:104EF0005C000020074C4FF08056074DFFF7AAFFDB
:104F000020680128FAD92E60BFF34F8FBFF36F8F4F
:104F1000F4E70000EC00002004ED00E030B511499A
:104F200000E011460A688242FBD34B685C18844259
:104F300003D1406818444860084643681C189442EE
:104F400009D1084C103C2468A24209D052681A4486
:104F500042600A6812680260814200D0086030BD79
:104F60000460F9E75C0000200648016B096829B17C
:104F7000016BC968C9684968816270474FF0FF31A9
:104F8000FAE700000800002008484068401C4FF085
:104F9000500080F3118804D0BFF34F8FBFF36F8FA1
:104FA000FEE7BFF34F8FBFF36F8FFEE74000002097
:104FB0002DE9F0410546002700F04EFA314E3068E9
:104FC00008B9FFF771FFF06805424BD1C5B308354A
:104FD00068070ED005F00700C0F108000544680717
:104FE00007D0502080F31188BFF34F8FBFF36F8F2E
:104FF000FEE72DB37068854234D822481030014650
:105000000C6801E020460C466168A94202D2216882
:105010000029F7D131688C4224D0076821680160EB
:1050200060680837411B10290FD96019420708D062
:10503000502080F31188BFF34F8FBFF36F8FFEE7CF
:1050400010E041606560FFF769FF61687068401AB1
:105050007060B268904200D2B060F06801430020F6
:10506000C4E9000100F006FC780707D0502080F367
:105070001188BFF34F8FBFF36F8FFEE73846BDE84F
:10508000F08100004C00002010B5031F4FF0807429
:105090001C601B1F1960191F044B0B6014390A6038
:1050A000091F6FF0020244380A6010BD894F0008E2
:1050B00070B5054608880C46C0F30A02A2F5806266
:1050C0002A8048788978C00840EA4110C0F30A0372
:1050D000A3F580636B80A078E178800940EA8100C5
:1050E000217902F5257240EA8120C0F30A01A1F579
:1050F0008061A98020796679400840EAC610C0F333
:105100000A00A0F58060E8806679B6092E7266799B
:10511000C6F301166E724FF4A566B2420BD803F5C2
:105120002573B34207D801F52571B14203D800F5C4
:105130002570B04203D916212846FBF7CAF8E0884B
:10514000A8812089E88160892882207BA874607BFF
:10515000E874E089A882208AC0F30A00A0F5806084
:10516000688170BDF0B4056BDDE9044616B340F20A
:10517000FF162E60066B0025B560066BF560066BAA
:1051800008253561066B0D0A3575056B6975056B6C
:10519000110AA975016BCA75026B190A1176016BA8
:1051A0004B76026B210A9176016BCC76F0BC6421C0
:1051B000FCF73AB84FF40076DBE7000038B5016839
:1051C0000A68D20624D5CA68D20621D504460868E2
:1051D000486800900F4884421AD1606B00680168EB
:1051E00021F001010160606B0068406880B22028F6
:1051F00004D1094901F11200FFF75AFF616B322017
:1052000009684860606B0068016841F00101016055
:1052100038BD0000803F0020144A0020D0E9013250
:1052200001699A60D0E901235A604A68824201D13B
:1052300082684A60002202610868401E0860704768
:1052400000F108014FF0FF32C0E90112C1600161B5
:1052500000210160704700210161704730B50B6883
:105260005A1C02D000F1080202E0026904E0224662
:10527000546825689D42FAD953684B6099608A60EA
:10528000516008610168491C016030BD42684A6094
:1052900093688B6093685960916008610168491C4C
:1052A00001607047502080F31188BFF34F8FBFF328
:1052B0006F8F0A494868401C486001280CD1084893
:1052C000006810F0FF0F07D0502080F31188BFF363
:1052D0004F8FBFF36F8FFEE7704700004000002044
:1052E00004ED00E00849486828B1401E486001D13B
:1052F00080F311887047502080F31188BFF34F8FDF
:10530000BFF36F8FFEE700004000002070B500285B
:1053100027D0144DA0F108046168E868014207D164
:10532000502080F31188BFF34F8FBFF36F8FFEE7DC
:1053300022683AB1502080F31188BFF34F8FBFF33A
:105340006F8FFEE78143616000F086F860686968EE
:10535000084468602046FFF7E1FDBDE8704000F0BA
:1053600089BA70BD4C00002006484FF47A7100687D
:10537000B0FBF1F14FF0E020491E416107210161CE
:10538000704700000400002070B5020022D0164CC7
:10539000E06A38B1502080F31188BFF34F8FBFF31C
:1053A0006F8FFEE700F058F8E06885182068001D50
:1053B000FFF734FF38B9206890F82C10012088409E
:1053C0002169814321612846FFF72AFD00F052FA46
:1053D000002807D105494FF080500860BFF34F8F78
:1053E000BFF36F8F70BD00000800002004ED00E0E7
:1053F0001FB500240094019402942346802212A138
:105400001348039400F0E4F8012809D0002819D1CA
:10541000502080F31188BFF34F8FBFF36F8FFEE7EB
:10542000502080F31188BFF34F8FBFF36F8F09486F
:105430004FF0FF31816201214161C460BDE81F402E
:1054400000F040B81FBD000049444C45000000007A
:10545000F54E0008080000200248C16A491CC162DC
:1054600070470000080000201448C16A11B10121F2
:10547000C16170470021C1610169B1FA81F1C1F1D7
:105480001F0101EB81020E4951F822306BB101EB93
:10549000820101F108034A6852684A609A4201D1C8
:1054A00052684A60D16801607047502080F31188CB
:1054B000BFF34F8FBFF36F8FFEE70000080000209F
:1054C000EC0000201CB532480168324A914207D1F5
:1054D000502080F31188BFF34F8FBFF36F8FFEE72B
:1054E00000682C49491E884207D1502080F311885A
:1054F000BFF34F8FBFF36F8FFEE727490878019006
:10550000FF20087008788DF800009DF800009DF8D5
:10551000002000F0F000904207D0502080F3118866
:10552000BFF34F8FBFF36F8FFEE79DF800001B4A5C
:1055300000F0500010700720906005E09DF80030EA
:105540005B008DF80030401E9DF800301B06F5D43E
:10555000000200F4E0609060019808700C48203070
:10556000016841F470010160016841F0704101601F
:10557000FFF7FAFE00205060FAF742FE0848016883
:1055800041F040410160FAF72BFE00201CBD0000F5
:1055900000ED00E071C20F4100E400E04000002097
:1055A00034EF00E010B5502080F31188BFF34F8F27
:1055B000BFF36F8F00F0F8F818B104494FF0805036
:1055C0000860002080F3118810BD000004ED00E0A9
:1055D0002DE9FF5F5FEA000BDDE90F900E9E154697
:1055E0008A4609D0072E0FD3502080F31188BFF3CD
:1055F0004F8FBFF36F8FFEE7502080F31188BFF30A
:105600004F8FBFF36F8FFEE7A900884610B9084699
:10561000FFF7CEFC07001ED05C20FFF7C9FC04009A
:10562000384616D0A52241462063FAF74BFE6FF0AC
:105630000301206B01EB8501084420F00707780780
:105640000CD0502080F31188BFF34F8FBFF36F8FC2
:10565000FEE7FFF75BFE4FF0FF348CE05146354626
:10566000002022180B5C82F834300A5C12B1401C16
:105670001028F6D3002084F84300072D00D3062518
:10568000E562C4E913508046201DFFF7E4FD04F1F4
:105690001800FFF7E0FD2461C5F107016462A16114
:1056A000C4F8548084F8588059463846039AFFF766
:1056B000EBFC2060B9F1000F01D0C9F80040FFF702
:1056C000F1FD2F4DA868401CA8602868DFF8B48061
:1056D00010B1686948B32DE02C60A868012829D171
:1056E0005FF0000707EB870108EB8100FFF7A8FDDB
:1056F0007F1C072FF6D323488C30FFF7A1FD2148EC
:10570000A030FFF79DFD1F48B430FFF799FD1D48FD
:10571000C830FFF795FD1B48DC30FFF791FD1948B5
:105720008C3028631430686304E02868C06AB04293
:1057300000D82C60686A401C68626064E16A0120DD
:105740002A6988401043286101EB810108EB810040
:10575000211DFFF79BFD0124FFF7C4FD686950B1CF
:105760002868C06AB04206D2074920070860BFF324
:105770004F8FBFF36F8F04B02046BDE8F09F00004D
:1057800008000020EC00002004ED00E0054841691D
:1057900019B1C06A18B1002070470120704702207B
:1057A00070470000080000202DE9F0412F4C002632
:1057B000E06A40B1A069401CA061E06900B1012627
:1057C0003046BDE8F081E068401CE060E7689FB9C2
:1057D000206B006838B1502080F31188BFF34F8FE1
:1057E000BFF36F8FFEE7206B616B21636063206AFC
:1057F000401C2062FFF7B8FBA06ADFF87480874284
:1058000009D3206B006880B1206BC068C5686868E8
:1058100087420DD2A0622068C06A00EB800158F870
:1058200021000128C9D90126C7E74FF0FF30F1E771
:10583000281DFFF7F3FCA86A18B105F11800FFF75F
:10584000EDFCE86A0121226981401143216100EBEE
:10585000800108EB8100291DFFF718FDE86A216827
:10586000C96A8842CDD30126CBE70000080000209A
:10587000EC0000202DE9F0472C4C0026E06A38B1FE
:10588000FFF710FDE06A401EE062E06A40B147E0C9
:10589000502080F31188BFF34F8FBFF36F8FFEE767
:1058A000A168234D012079B3A5F1B4098046286889
:1058B000E8B1E868C76807F11800FFF7AFFC381DCA
:1058C000FFF7ACFCF96A226908FA01F01043206185
:1058D00001EB810109EB8100391DFFF7D7FCF86A64
:1058E0002168C96A8842E2D3C4F81C80DFE7A06956
:1058F00058B14546A06940B1FFF756FF00B1E561D8
:10590000A069401EA061F5E70AE0E069012807D11F
:105910000849012600070860BFF34F8FBFF36F8F60
:10592000FFF7E0FC3046BDE8F087000008000020EB
:10593000A001002004ED00E000061016000610167D
:105940000000000001020304010203040607080925
:105950004866000839380008000000000000000018
:1059600080000000346600083D09000800000000C7
:1059700000000000800000003C660008F9070008F5
:105980000000000000000000800000002866000801
:10599000890C0008000000000000000080000000EA
:1059A00000000000000000000000000000000000F7
:1059B0003F400000000000000000300040003000C8
:1059C0004000000009000BC03D000BC03D00090075
:1059D00018C024407FE0224031800000180024C01D
:1059E0001B000D803240018003801C4027401C803A
:1059F00007400040100060000000000000000000B0
:105A00000000000000001F802040402000004020D7
:105A100020401F8000000000090006001F800600D3
:105A200009000000040004003F800400040000009E
:105A300000100060000000000000000004000400EE
:105A4000040004000400000000000040000000000A
:105A500000000000002001C00600380040000000E7
:105A60001F802040204020401F8000000000104088
:105A70003FC000400000000018C0214022402440E8
:105A80001840000010802040244024401B8000006B
:105A900002000D0011003FC0014000003C80244086
:105AA00024402440238000001F80244024403440B0
:105AB000038000003000200027C0380020000000D4
:105AC0001B802440244024401B8000001C0022C076
:105AD000224022401F80000000000000084000001B
