:020000040800F2
:10000000B04D00207D020008F7390008AF2C000831
:10001000F539000853090008ED450008000000000C
:10002000000000000000000000000000C101000806
:100030005D0D00080000000015020008B53D000835
:10004000970200089702000897020008970200082C
:10005000970200089702000897020008970200081C
:10006000970200089702000897020008970200080C
:10007000890C000897020008970200089702000800
:10008000950C000897020008970200086109000813
:100090005509000897020008970200089702000817
:1000A00097020008970200089702000897020008CC
:1000B000B13E000897020008970200089702000866
:1000C00097020008970200089702000897020008AC
:1000D00097020008B1450008C9450008D545000849
:1000E000970200089702000897020008970200088C
:1000F000970200089702000897020008970200087C
:10010000970200089702000897020008970200086B
:100110009702000897020008353F00089702000880
:1001200097020008A10C0008AD0C00089702000817
:100130009702000897020008970200087909000852
:100140006D0900089702000897020008970200084E
:10015000970200089702000897020008E14500088E
:10016000970200089702000897020008970200080B
:10017000970200089702000897020008000000009C
:1001800097020008970200089702000897020008EB
:1001900097020008970200089702000897020008DB
:1001A000000000000000000097020008DFF80CD0FB
:1001B00000F09CFB00480047C5520008B04D0020ED
:1001C0002B4B19680868B0E8F04F80F30988BFF33B
:1001D0006F8F4FF0000080F311887047000000001F
:1001E00006480068006880F3088862B661B6BFF30D
:1001F0004F8FBFF36F8F00DF00BF00BF08ED00E03F
:10020000DFF80C00016841F470010160704700BF25
:1002100088ED00E0EFF30980BFF36F8F144B1A688D
:100220001EF0100F08BF20ED108A20E9F04F10607B
:1002300008B44FF0500080F31188BFF34F8FBFF325
:100240006F8F05F02DFE4FF0000080F3118808BC81
:1002500019680868B0E8F04F1EF0100F08BFB0EC46
:10026000108A80F30988BFF36F8F704700BF00BF0B
:1002700008000020EFF30580704700000648804723
:1002800006480047FEE7FEE7FEE7FEE7FEE7FEE77B
:10029000FEE7FEE7FEE7FEE75D3E0008AD01000871
:1002A00040EA01039B0703D009E008C9121F08C0F8
:1002B000042AFAD203E011F8013B00F8013B521E78
:1002C000F9D27047D2B201E000F8012B491EFBD2EF
:1002D00070470022F6E710B513460A460446194651
:1002E000FFF7F0FF204610BD2DE9FE4F81EA030421
:1002F00004F0004421F0004100944FF0000B23F083
:10030000004350EA01045ED052EA03045BD0C3F319
:100310000A54C1F30A552C44A4F2F3340194A0FB0F
:100320000254C1F3130141F48011C3F3130343F4E6
:10033000801301FB024400FB034E840A970A44EA3F
:10034000815447EA8357A4FB076802958D0A05FB91
:1003500007854FEA932C04FB0C542705029D4FEAB6
:10036000065847EA1637B5EB08056EEB070C870E03
:10037000920E47EA811742EA8312A7FB0201B6EB0D
:100380000B0164EB00042B0D43EA0C335E1844EBC5
:100390001C50DA465146E7FB0201C5F313044FEA4D
:1003A0000B3343EA14534FEA0432019C43EA060339
:1003B000A4F10C040294009CCDE900B400F002F911
:1003C00003B0BDE8F08F00200146F9E70EB5C10F7C
:1003D00080EAE0700844CA07002140F233438DE808
:1003E0000E000A460B4600F0EDF803B000BD70B5F4
:1003F000C1F30A5201F000450024C1F3130140F299
:10040000FF3341F480119A4201DA002070BD40F2BE
:1004100033439A42A2F2334203DC524200F07CF8AA
:1004200000E090402C43F1D0404270BD00F000420B
:1004300030F000400AD0C10D01F56071C0F3160024
:1004400042EA0151C20840071143704700200146AB
:10045000704701F0004330B421F0004150EA01023E
:1004600006D00A0DA2F56072C1F31301002A02DC66
:1004700030BC00207047440F44EAC104C100E018BA
:1004800030BC00EBC25000F057B830B50B46014607
:1004900000202022012409E021FA02F59D4205D323
:1004A00003FA02F5491B04FA02F52844151EA2F1CD
:1004B0000102F1DC30BD2DE9F05F054600209246D7
:1004C0009B4688460646814640241BE02846414616
:1004D0004746224600F020F853465A46C01A91413A
:1004E00010D311461846224600F012FA2D1A67EB77
:1004F00001084F4622460120002100F009FA17EBBF
:1005000000094E41201EA4F10104DFDC48463146BB
:100510002A464346BDE8F09F202A04DB203A21FA10
:1005200002F00021704721FA02F3D040C2F120020C
:1005300091400843194670470029A8BF7047401CE6
:10054000490008BF20F00100704710B4B0FA80FCE9
:1005500000FA0CF050EA010404BF10BC704749B126
:10056000CCF1200421FA04F411FA0CF118BF012196
:1005700021430843A3EB0C01CB1D4FEA00614FEA76
:10058000102042BF002010BC704700EBC350104445
:100590000029A4BF10BC7047401C490008BF20F0D0
:1005A000010010BC704710B5141E73F1000408DA86
:1005B000401C41F1000192185B411A4301D120F027
:1005C000010010BD2DE9F04D92469B4611B1B1FAE4
:1005D00081F202E0B0FA80F22032904600F098F901
:1005E00004460F4640EA0A0041EA0B0153465A46C8
:1005F000084313D0114653EA010019D0C8F1400254
:100600005046FFF789FF05460E465046594642467A
:1006100000F07EF9084305D0012004E02046394669
:10062000BDE8F08D0020054346EAE0762C433743D1
:100630000A986305E40AA0EB08000022FD0A44EAD8
:1006400047540A3002D500200146E9E70105101998
:100650006941DDE9084500196941BDE8F04DA2E7AF
:100660002DE9FE4F804681EA0300C00F0C46009042
:1006700021F0004123F00045B8EB0200A94105D26A
:100680004046214690461C460B46024623F0004059
:10069000104347D0270DC7F30A00C3F30A51029055
:1006A000401A019040286BDAC3F3130040F4801B1A
:1006B0000098924620B10023D2EB030A63EB0B0BA8
:1006C00001985946C0F14002504600F021F9064613
:1006D0000D4650465946019A00F029F910EB0800E2
:1006E0006141002487EA115284EAE7731A4340D03B
:1006F000009A62B3019A012A4FEA075215DC001BE7
:1007000061EB02014FF0004202EA0752CDE90042DC
:10071000001C41F5801132462B46FFF753FF03B012
:10072000BDE8F08F40462146F9E7001B61EB02016E
:10073000001C41F5801300185B412018A2F500173A
:1007400047EB030140EAD570B6196D4111E06D0821
:100750004FEA360645EAC0754FEA0752001B61EBC7
:100760000201001C41F5801149084FEA30000019D0
:10077000514132462B4603B0BDE8F04FFFF713BF9F
:100780000098012240000023D0EB020263EBE073EB
:10079000009821464FEAE074B8EB000061EB0401D9
:1007A000E9E783F000435BE781F0004158E72DE97A
:1007B000F04D81EA030404F0004B21F0004514469B
:1007C0004FF0000A23F0004150EA050220D054EA1D
:1007D00001021DD0C5F30A570246C5F31303C1F346
:1007E0001300C1F30A5640F4801543F48013A7EBBD
:1007F0000608101BD64608F2FD3873EB050002D33D
:1008000008F1010801E092185B41B8F1000F03DA2A
:1008100000200146BDE8F08D00204FF4801106460F
:1008200084460EE0171B73EB050705D3121B63EB21
:10083000050306434CEA010C49084FEA30009218C0
:100840005B4150EA0107EDD152EA030012D082EA7F
:10085000040083EA0501084305D0101BAB4106D212
:100860000122002306E000224FF0004302E06FF077
:10087000010253101AEB06004CEB085110EB0A0072
:1008800041EB0B01BDE8F04DFFF78DBEC1F30A52FD
:10089000C1F3130140F2FF3341F480119A4202DAAE
:1008A00000200146704740F233439A42A2F233429D
:1008B00002DC5242FFF730BE00F02AB830B5041E09
:1008C00071F1000404DB4FF00044404264EB01018D
:1008D000141E73F1000405DB1C464FF00043524226
:1008E00063EB0403994208BF904230BD064C074DAC
:1008F00006E0E06840F0010394E8070098471034F0
:10090000AC42F6D3FFF756FCC0690008E069000866
:10091000202A04DB203A00FA02F1002070479140BF
:10092000C2F1200320FA03F3194390407047202AB4
:1009300006DBCB17203A41FA02F043EAE07306E007
:1009400041FA02F3D040C2F1200291400843194617
:100950007047FEE7014800F09BBA0000D04200203B
:10096000014800F095BA0000D0420020014800F094
:100970008FBA000010430020014800F089BA00003F
:100980001043002010B54FF4D872036802EB011237
:100990009B5813F00404436B9C600468436BA45899
:1009A00054D0E4085C6003689A58436B02F002027A
:1009B000DA604FF4DA72036802EB01129B58446B61
:1009C00003F00F03236103689A58436BC2F30722B5
:1009D000DA614FF4DC72036802EB01129B58446B3E
:1009E000237503689B58446B1B0A637503689B5807
:1009F000446B1B0CA37503689A58436B120EDA758F
:100A00004FF4DE72036802EB01129B58446B2376AD
:100A100003689B58446B1B0A637603689B58446BBE
:100A20001B0CA37603689A58436B120EDA762022C9
:100A3000002901680DD00A6101684A6922F010029C
:100A40004A6190F83810222909D021E0640D1C6019
:100A5000A9E7CA6001684A6922F00202F0E701686A
:100A60004A6922F480724A6101684A6922F400727C
:100A70004A6101684A6922F480624A6101684A69F0
:100A800022F400624A6101684A6922F400424A6124
:100A900090F83810322907D05FF0010180F8381043
:100AA00000F00EFC002010BD1221F7E710B5016820
:100AB0004A6922F001024A6190F83810122918D1CF
:100AC00001684A6922F480724A6101684A6922F425
:100AD00000724A6101684A6922F480624A610168D1
:100AE0004A6922F400624A6101684A6922F40042BC
:100AF0004A6190F83810322906D0012180F8381068
:100B000000F0E0FC002010BD2221F7E72DE9F041C4
:100B100017482DED028B04F00BFC0021144800F067
:100B20008BFB0021134800F087FB134D9FED138AC8
:100B3000DFED138A00244FF4FA6641F2707700BFAC
:100B400004EBC40000EB400005EB8000B0EE481A57
:100B5000F0EE680AB1EE020A33463A46032102F08B
:100B60005BFF641C042CEBDBBDEC028BBDE8F08169
:100B7000D0420020104300208045002000000000EB
:100B8000CDCCCC3D00F005F800F006F804F032FCC6
:100B9000FAE7FFF7BBBF000070B5374C37492DEDC2
:100BA000068B0E46A08A08803548007807285FD259
:100BB000DFE800F05E04475E4D4D4D0004F050FF4D
:100BC00020886FF0090110FB01F0FFF7FFFB2D4DAE
:100BD00041EC1A0B85ED00ABB4F9020000EB80008C
:100BE0004000FFF7F3FB41EC190B6FF0090185EDB5
:100BF000029BA08810FB01F0FFF7E8FB41EC100B13
:100C000085ED040BFFF725FC08EE100A51EC190BDB
:100C1000FFF71FFC08EE900A51EC1A0BFFF719FCC6
:100C2000D6ED010A00EE100A1449FDEEE00A0C317F
:100C3000B0EE481A10EE900AF0EE680A02F02AFEB2
:100C40000EE0BDEC068BBDE8704002F0EBB804F09E
:100C500007FF0020F060306120210A48FFF739FBD0
:100C6000BDEC068BBDE8704004480C3002F0E0BEDD
:100C7000BDEC068B70BD000086480020B800002047
:100C80007400002090490020014800F02FBC0000B3
:100C900024410020014800F029BC0000C44000208D
:100CA000014800F023BC000084410020014800F00E
:100CB0001DBC00006440002001681823CAB2103A2D
:100CC000B2FBF3F2054B6FF30901032A9B5CC3658A
:100CD00000D9091D81650846704700004866000874
:100CE00010B5014600208B698A6A4FF0C07453B179
:100CF000B3F5005F15D072B1012A0CD0022A0AD0D8
:100D0000032A09D104E01AB1012A06D0022A03D12C
:100D1000C96AC90100D5012010BDC96AA142FAD033
:100D200010BD002AF7D0012AF2D0022AF3D0032AFC
:100D3000F3D010BD30B50468256825F48025256002
:100D4000046863608368402B036803D0996000687F
:100D5000C26030BD9A600068C16030BD7047FEE778
:100D600010B558B1084C491E0BD310F8013B534045
:100D7000DBB234F8133083EA1222F4E74FF6FF7047
:100D800010BD104610BD00009C67000810B5054C52
:100D900004E000BF10F8013B5340E25C491EF9D269
:100DA000104610BD9C660008F0B50A7D01209040F9
:100DB000344A136843F001031360136823F47C532F
:100DC000136013684C6A43EA042313602D4B1C33F1
:100DD0001C6884431C602B4D2B4CCE690C35A6B986
:100DE0002E6886432E608F894E6867F31F464F69D1
:100DF00004EBC707C7F840660F890E6867F31F4604
:100E00004F6904EBC707C7F84466CE69012E14D1B9
:100E10002E6806432E600E884D6866F31F454E69A6
:100E200004EBC606C6F840560E89CD6866F31F452A
:100E30004E6904EBC604C4F84456124C8D69241D57
:100E4000002D256806D0054325600E4C0D6914342D
:100E500015B104E08543F7E72568854325600D69F2
:100E6000012D02D1256805432560096A012902D1B7
:100E7000196801431960106820F00100106000201B
:100E8000F0BD0000006600400060004070470000B8
:100E900010B5044600684169C943C90714D1826886
:100EA0005849914368D000218368574A9A4365D0D6
:100EB000002283685548984362D0002011430143C3
:100EC00002D02046FFF7F2FD2068C168406911F0AA
:100ED000030FC0F3400004D018B100212046FFF7F3
:100EE00051FD21680869496910F0030FC1F3001131
:100EF00004D019B101212046FFF744FD2068816923
:100F0000426911F0010FC2F300234269C2F3C032FB
:100F100005D023B11AB1E16B41F00101E1638169B0
:100F2000C1F3400341694269C1F34021C2F3C032B9
:100F30002BB121B11AB1E16B41F00201E16381698A
:100F40004269C1F38001C2F380234269C2F3C03217
:100F500029B123B11AB1E16B41F00401E163816968
:100F600011F0700F0ED0002142694369C2F3C02214
:100F7000C3F3C03341B127E0012195E7012298E78F
:100F800001209BE70121EFE7F2B1EBB1816901F0AC
:100F90007001402929D006DC102909D020290BD066
:100FA00030290DD11DE0502923D0602908D124E03B
:100FB000E16B41F0080102E0E16B41F01001E163F7
:100FC000816921F070018161E06B002808D02168FF
:100FD00004204860012084F838002046FFF756FFBF
:100FE00010BDE16B41F02001E9E7E16B41F0400108
:100FF000E5E7E16B41F08001E1E7E16B41F48071ED
:10100000DDE70000030000040003000800000310F7
:101010002DE9F041040004D094F83800002518B1FF
:1010200007E00120BDE8F08184F83950204600F047
:1010300093F8022084F838002068016821F002014A
:1010400001602068016841F00101016000F09EFC30
:101050000746032605E000BF00F098FCC01B0A28E5
:1010600063D820684068C007F6D020684168C90787
:1010700068D0A169012901683FD021F08001016099
:10108000E0690128206801683AD021F04001016040
:10109000206A01282068016835D021F02001016014
:1010A000606A01282068016830D021F010010160D9
:1010B000A06A0128206801682BD021F00801016096
:1010C000E06A01282068016826D021F0040101604F
:1010D000D4E902010843D4E90412114308436168CA
:1010E000491E08432168C8612068016821F0010198
:1010F000016000F04BFC07461CE041F08001BEE7B8
:1011000041F04001C3E741F02001C8E741F0100180
:10111000CDE741F00801D2E741F00401D7E700BF75
:1011200000F034FCC01B0A2804D904F8386F0320EF
:10113000657077E720684068C007F1D12068406893
:10114000C00703D0042084F838006AE7E563012073
:1011500084F83800002065E7F0B5324B0768DFF807
:10116000C0C018680322022409252F490026401C0C
:1011700087B0674521D11860012807D1086840F081
:1011800000700860086800F0007005908DE8540059
:10119000CDE903256946254800F008FB002205211A
:1011A000132000F08DFC132000F07EFC00220521AE
:1011B000142000F085FC14202EE0DFF874C0674591
:1011C0002CD10F6847F080670F600F68012807F087
:1011D00080670597186007D1086840F000700860C4
:1011E000086800F0007005904FF440508DE8510001
:1011F000CDE9032569460F4800F0D8FA00221146D0
:101200003F2000F05DFC3F2000F04EFC0022114624
:10121000402000F055FC402000F046FC07B0F0BD37
:10122000006400406800002040380240000C02408A
:10123000006800400004024010B590F83820012AF0
:1012400001D0122A39D190F83920012A35D0012253
:1012500080F8392090F83820122A29D05FF0220235
:1012600080F838200022C26303685C6944F480740B
:101270005C6103685C6944F400745C6103685C69E8
:1012800044F480645C6103685C6944F400645C61FC
:1012900003685C6944F400445C6180F839200068AC
:1012A0000029416906D041F010014161002010BDC4
:1012B0003222D5E741F00201F7E7022010BD00001D
:1012C00010B5416B0A681346A2F20121134A07299F
:1012D00017D2DFE801F0040404040A0A0A00C9B2C4
:1012E000117001EB41010E4A05E05B1FD9B251704C
:1012F0000C4A01EB410102EB01120146104603F0DA
:1013000057FE09480068416941F002014161074800
:101310000068416941F00201416110BD6E0000208A
:101320005043002070440020D04200201043002091
:101330002DE9F05F0E46016804468868400105D437
:101340008868000102D48868C00067D594F8390025
:1013500001280ED0012784F8397094F8380022282B
:101360000AD0122084F838008868400106D500258C
:101370000AE00220BDE8F09F3220F3E78868000110
:1013800001D5012500E002254FF4C07000EB0510E7
:101390000A5802F001020A50216B8A68EAB3D4F8B5
:1013A00000C05CF800301343CA68496842EAC101D2
:1013B0000B434CF80030216B0A7C02F00F020A61EB
:1013C0004FF4C271226801EB0511535823F00F034B
:1013D000535022685358D4F830C0DCF810C043EAA8
:1013E0000C035350216B4FF4C47303EB05130A7DB8
:1013F000D1F8151042EA01212268D150216B4FF437
:10140000C67303EB05130A7ED1F8191042EA0121D5
:101410002268D15021680A5801E00DE046E042F010
:1014200001020A5000F0B2FA81464FF00008DFF8DE
:1014300088A0DFF888B019E022681358D1F80CC0F2
:10144000098843EA0C0343EA41511150B3E7701C89
:101450000CD02EB100F09AFAA0EB0900B04205D9E9
:10146000032084F8380084F8398083E795B1206838
:10147000012D816813D0124888430028E7D194F8E1
:10148000380032280ED084F8387000BF84F83980D4
:1014900000206FE7206881682AEA0100EDE72BEA67
:1014A0000100EAE7222084F83800EFE7042084F8FE
:1014B000380001205EE7000003000004000300087C
:1014C00000000310704790F83510022903D08021E6
:1014D000416501207047052180F8351000680168DA
:1014E00021F0010101600020704700002DE9F84360
:1014F00004464FF00008CDF8008064484FF41651C0
:10150000A56D0068B0FBF1F72E6894F85C10082018
:1015100000FA01F131420FD021680A6852070BD559
:101520000A6822F004020A6094F85C108840A860FF
:10153000606D40F00100606594F85C10544888408C
:10154000304208D021684969090604D5A860606D59
:1015500040F0020060654E4894F85C10C01C884062
:10156000304208D021680968890704D5A860606DF9
:1015700040F00400606594F85C1010208840304210
:1015800018D021680968090714D5A8602068016887
:10159000490304D50068000308D5A16C07E0016881
:1015A000C90503D4016821F008010160216C09B16B
:1015B0002046884794F85C102020884030424FF045
:1015C000010631D021680968C9062DD5A86094F8B4
:1015D000350005282068016806D0490347D5006812
:1015E00000031DD4616C1CE021F01601016020682D
:1015F000416921F080014161206C08B9A06C20B1E3
:101600002068016821F00801016094F85C103F2017
:101610008840A86084F8348084F83560216D1FE02C
:10162000E16B09B120468847606D00282BD0606DC2
:10163000C00714D0052084F835002068016821F027
:10164000010101600098401C0090B84203D8206856
:101650000068C007F6D184F8348084F83560E16C06
:10166000002910D001B02046BDE8F04308470168CA
:10167000C905D5D4016821F01001016084F83480D7
:1016800084F83560CCE7BDE8F88300000400002052
:10169000010080002DE9F041044600F077F906468C
:1016A0005CB1002584F83450022084F835002068AD
:1016B000016821F0010101600DE00120BDE8F08129
:1016C00000F064F9801B052805D9202060650320FF
:1016D00084F83500F2E720680068C007F0D122687E
:1016E00011681F480140D4E901031843D4E90336C7
:1016F0003343184363691843A3691843E3691843E4
:10170000236A18430843616A042903D1D4E90B13FF
:1017100019430843106020684069666A20F0070199
:1017200030460E43012704280AD1A06A064320460A
:10173000FFF7D6FA20B14020606584F83570BCE729
:10174000206846612046FFF7B7FA94F85C203F21F5
:1017500091408160656584F835700020AEE7000037
:101760003F8010F070B5044690F834000025012841
:101770000CD0012084F8340094F835600020012E4C
:1017800006D084F834000225284670BD022070BDC2
:10179000022684F8356060652046FFF7CBFA2068A2
:1017A000016841F001010160EEE700002DE9F84F0A
:1017B000DFF890B100224FF001084FF0030A4FF01C
:1017C0000F090BF1040E00BF0B6808FA02F4234066
:1017D000A3426ED14D68022D01D0122D0ED1D50835
:1017E00000EB850CDCF820505607F70E09FA07F6D7
:1017F000B5430E69BE402E43CCF820600668550004
:101800000F790AFA05FC07F0030726EA0C06AF4039
:10181000374307604E68012E05D0022E03D0112EEB
:1018200001D0122E0ED18768CE6827EA0C07AE4091
:101830003E4386604668A6430C79C4F30014944086
:1018400034434460C4688E6824EA0C04AE402643E6
:10185000C6604C68E4006FD53B4C256845F4804574
:101860002560246822F0030504F480440094374C7A
:101870002E19D6F8084895072F0F09FA07F5AC433B
:10188000334DA84201D100252EE0324DA84201D1AE
:10189000012529E0304DA84201D1022524E02F4D39
:1018A000A84201D103251FE02D4DA84202D10425F5
:1018B0001AE041E02B4DA84201D1052514E02A4D44
:1018C000A84201D106250FE0284DA84201D10725E5
:1018D0000AE0274DA84201D1082505E0254DA84280
:1018E00001D1092500E00A25BD402543C6F8085866
:1018F000DBF800405D464E689C43F60300D51C4370
:101900002C60DEF8004075464E689C43B60300D557
:101910001C432C600B4D08352C684E689C43F60226
:1019200000D51C432C60074D0C352C684E689C4339
:10193000B60200D51C432C60521C102AFFF444AFA1
:10194000BDE8F88F003C01404438024000300140BF
:10195000000002400004024000080240000C024067
:10196000001002400014024000180240001C024017
:1019700000200240002402400069084000D00120FD
:1019800070470AB1816170470904FBE701480068AC
:10199000704700000000002002480168491C0160F7
:1019A00070470000000000200B4810B5016841F4AA
:1019B00000710160016841F480610160016841F4D7
:1019C00080710160032000F09BF8002000F006F811
:1019D00000F03EF8002010BD003C024010B501466A
:1019E00088B00022362000F06BF8362000F05CF85A
:1019F00013480024016841F010010160006805A946
:101A000000F010000690684600F090F900F0B4F97C
:101A10000C494000B0FBF1F10C480B4A491E026032
:101A200040F2E732C0E90324C0E9011400F07DFC74
:101A300010B1012008B010BD044800F092FCF9E795
:101A40004038024040420F0000100040E4410020B6
:101A500010B5032000F054F8002211466FF00B007F
:101A600000F02EF8002211466FF00A0000F028F86E
:101A7000002211466FF0090000F022F80022114602
:101A8000501F00F01DF800221146101F00F018F83A
:101A900000220F21901E00F013F800220F21BDE854
:101AA0001040501E00F00CB800F01F0201219140C0
:101AB0004009800000F1E020C0F8001170470000EC
:101AC000F0B40E4B1B680C46C3F30223C3F10705A9
:101AD000042D00D90425191D072901D2002300E097
:101AE000DB1E012606FA05F1491E214099409E4061
:101AF000761E16403143F0BC01F07EBF0CED00E0D5
:101B0000064900F0070208684FF6FF03184040EA54
:101B10000220034A10430860704700000CED00E00B
:101B20000000FA052DE9F8431E48016841F0805194
:101B300001600068012600F080500090300490FAA7
:101B4000A0F0194FB0FA80F047F82060FFF71EFFB1
:101B500005464FF47A78154C05E000BFFFF716FFF5
:101B6000401B404515D86068C003F7D54FF40030DE
:101B700090FAA0F0B0FA80F047F82060FFF706FF77
:101B80000546464608E000BFFFF700FF401BB04295
:101B900002D90320BDE8F88360688003F4D50020F3
:101BA000F8E700004038024000000E42007000409C
:101BB0002DE9F047DFF8649105460F46D9F800009B
:101BC00000F00F01F8B28046B94208D2014689F808
:101BD0000010D9F8000000F00F00B84274D1287846
:101BE0004F4C800705D52068A96820F0F000084315
:101BF00020602878C00759D0494968680839012809
:101C00001AD002281BD0032819D009688907002997
:101C10005ADA216821F0030101432160FFF7B6FE83
:101C20006968064641F28830012911D002291DD089
:101C30000329824627D035E009688903E7E7096868
:101C40008901E4E7FFF7A2FE811B514501D926E097
:101C500082462068C0F381000128F3D126E000BF4E
:101C6000FFF794FE811B514501D918E08246206898
:101C7000C0F381000228F3D118E000BFFFF786FE11
:101C8000811B51450BD82068C0F381000328F5D192
:101C90000CE000BFFFF77AFE811B514502D90320FB
:101CA000BDE8F087206810F00C0FF3D1D9F80010D0
:101CB000484601F00F01B94208D980F80080006859
:101CC00000F00F00B84201D00120E9E72878400772
:101CD00005D52068E96820F4E050084320602878A2
:101CE000000706D52068296920F4604040EAC10059
:101CF000206000F071F82168F02292FAA2F201F05F
:101D0000F001B2FA82F2D140064A515CC84006495D
:101D100008600020FFF762FE0020C1E7003C02409F
:101D20000838024050660008040000200F220260BC
:101D30000C4A136803F003034360136803F0F003D5
:101D40008360136803F4E053C36012684FF4E053F8
:101D500003EAD20202610448006800F00F00086044
:101D60007047000008380240003C0240014800680B
:101D7000704700000400002008480949006809680D
:101D80004FF4E05292FAA2F201F4E051B2FA82F278
:101D9000D140044A515CC840704700000400002054
:101DA0000838024050660008084809490068096878
:101DB0004FF4604292FAA2F201F46041B2FA82F268
:101DC000D140044A515CC840704700000400002024
:101DD000083802405066000830B51948006810F015
:101DE0000C01184812D0184C04290ED008290DD126
:101DF0001349091F0A6802F03F030A68550247F6B3
:101E0000C07204D5B4FBF3F003E0204630BDB0FB54
:101E1000F3F00B680968134092FAA2F2B2FA82F268
:101E2000D34058434FF4403292FAA2F201F44031C9
:101E3000B2FA82F2D140491C4900B0FBF1F030BD4A
:101E4000083802400024F400001BB7002DE9F84FC9
:101E50000446DFF8CC820078A8F1040BC007ABF190
:101E6000040537D0D8F800104046C1F3810101299C
:101E700008D00068C0F3810002280AD1DBF8000016
:101E8000400206D52868800324D56068002878D0F1
:101E900020E0A3492079891F0870606868B1FFF7C6
:101EA00075FD064605E000BFFFF770FD801B642846
:101EB00068D828688003F7D50CE0FFF767FD064671
:101EC00005E000BFFFF762FD801B6428F0D828689A
:101ED0008003F7D42078934E80074FF0010A4FF02B
:101EE000000742D5D8F80010404611F00C0F08D07A
:101EF0000068C0F3810002280AD1DBF8000040022C
:101F000006D42868800714D5E068012839D110E08C
:101F1000E068D8B1C6F800A0FFF738FD814605E0BB
:101F2000FFF734FDA0EB09000228C1D8286880071C
:101F3000F6D52868F82292FAA2F22169B2FA82F262
:101F400020F0F8009140084328600EE03760FFF76A
:101F50001DFD814606E000BFFFF718FDA0EB09005C
:101F600002280FD828688007F6D42078000728D5E3
:101F70006D486169A1B1C0F800A0FFF707FD814677
:101F800008E0CAE079E000BFFFF700FDA0EB090020
:101F9000022872D862486C3000688007F4D510E0DF
:101FA0000760FFF7F3FC814606E000BFFFF7EEFC99
:101FB000A0EB0900022860D859486C3000688007FF
:101FC000F4D42078400749D555483830016841F0AD
:101FD00080510160006800F0805000905348016813
:101FE00041F480710160FFF7D1FC814606E000BF3B
:101FF000FFF7CCFCA0EB090002283ED84B48006854
:10200000C005F5D5DFF81891207A09F1680989F83B
:102010000000A06888B1FFF7B9FC009008E000BF9D
:10202000FFF7B4FC0099411A41F2883081426CD824
:10203000D9F800008007F3D510E0FFF7A7FC009067
:1020400008E000BFFFF7A2FC0099411A41F2883076
:1020500081425AD8D9F800008007F3D4A069E0B3D0
:10206000D8F80010C1F38101022956D00228376642
:1020700004D0FFF78BFC04464AE046E0FFF786FCFD
:10208000074604E0FFF782FCC01B02283DD8286801
:102090008001F7D4D4E90701084347F6C07292FAE9
:1020A000A2F2616AB2FA82F29140A26A4FF0FF3363
:1020B00003EB52024FF4403393FAA3F3B3FA83F3E2
:1020C0009A40114308434FF0706292FAA2F2E16A1B
:1020D000B2FA82F29140084300E01CE0CBF8000025
:1020E000C6F860A0FFF752FC044604E0FFF74EFC80
:1020F000001B022809D828688001F7D50BE000BF33
:10210000FFF744FC001B022802D90320BDE8F88F2A
:1021100028688001F4D40020F8E70120F6E70000E9
:102120000838024000004742800E474200700040DD
:1021300070B5040005D00025A56294F8510010B1D7
:1021400006E0012070BD84F85050204600F030F8C1
:10215000022084F851002068016821F040010160EC
:10216000D4E901010843D4E903121143084361692A
:102170000843218B01F400710843E1690843216A97
:102180000843A16A084321680860A069042101EAA4
:102190001040616A0843216848602068C16921F4E1
:1021A0000061C1616565012084F85100002070BDA7
:1021B0002DE9F0430746006820490025204C0226FF
:1021C00087B04FF003084FF0050988421BD1206803
:1021D00040F480502060206802AA00F480500590EE
:1021E0001820CDE9000682E8200369461548FFF76C
:1021F000DDFA8020CDE9000602AA694682E82003C4
:102200001148FFF7D3FA11493868884212D1206883
:1022100040F480102060206802AA00F4801005902D
:102220004FF46070CDE9000682E820036946084853
:10223000FFF7BCFA07B0BDE8F083000000300140B2
:1022400044380240000402400000024000500140B7
:10225000001402404FF0E0210428086903D020F068
:1022600004000861704740F00400FAE710B5401E12
:10227000B0F1807F01D3012010BD4FF0E0246061F8
:102280000F21601701F0B8FB0020A061072020613A
:10229000002010BD7047704730B590F83820012AF3
:1022A00019D0012200F8382F02234370D1E90034FD
:1022B0002343D1E902452C4323430C6923434C6952
:1022C000896923430B4350F8381C4B64427000214A
:1022D0000170084630BD022030BD30B590F838207E
:1022E000012A20D0012280F83820022380F83930DA
:1022F00003685C6824F070045C6003685C680D68C7
:102300002C435C6003689C6824F080049C60036834
:102310009C6849680C439C6080F83920002180F853
:102320003810084630BD022030BD10B5040003D07F
:1023300094F8390010B107E0012010BD002084F8A6
:102340003800204600F00CF8022084F83900211DE6
:10235000206801F0F5FD012084F83900002010BD4F
:1023600070470168CA6842F00102CA6000680168EB
:1023700041F00101016000207047704770B50446CC
:10238000006801694FF00005C943890715D4C16889
:10239000C943890711D4E91E016101202076206814
:1023A00080698007204602D0FFF7E7FF04E000F0D5
:1023B0002DF9204600F00CFA257620680169C94302
:1023C000490717D4C168C943490713D46FF0040102
:1023D0000161022020762068806910F4407F204649
:1023E00002D0FFF7CAFF04E000F010F9204600F029
:1023F000EFF9257620680169C943090716D4C16839
:10240000C943090712D46FF0080101610420207646
:102410002068C0698007204602D0FFF7AEFF04E0C5
:1024200000F0F4F8204600F0D3F925762068016921
:10243000C943C90617D4C168C943C90613D46FF08C
:1024400010010161082020762068C06910F4407FE7
:10245000204602D0FFF791FF04E000F0D7F82046B5
:1024600000F0B6F9257620680169C943C90708D18B
:10247000C168C943C90704D1891E0161204600F023
:10248000C5F920680169C943090609D4C168C9436F
:10249000090605D46FF0800101612046FFF7FAFEBE
:1024A00020680169C943490609D4C168C94349067E
:1024B00005D46FF040010161204600F0B1F92068B9
:1024C0000169C94389060BD4C168C943890607D489
:1024D0006FF0200101612046BDE87040FFF7DBBED0
:1024E00070BD0000F0B53D4A0168002402250126B8
:1024F0003B4885B0914213D14FF440710091CDE932
:102500000154CDE903466946FFF750F94FF4C04046
:102510000090CDE90154CDE90346694631481FE0FA
:10252000B1F1804F09D0304881421CD16020009029
:10253000CDE9015469462D4834E00F210091CDE9E1
:102540000154CDE903466946FFF730F900221146F0
:102550001C20FFF7B5FA1C20FFF7A6FA05B0F0BD66
:10256000FFF724F9FAE72248814207D14FF470407F
:102570000090CDE9015469461E4813E01E4A1F48E9
:102580001F4F914211D10096CDE901546946CDE922
:102590000345FFF70BF94FF4E0500090CDE90154EB
:1025A00069463846CDE90345DAE7164A914208D133
:1025B000E4210091CDE901540321CDE903416946AD
:1025C000CEE711488142C9D140200090CDE90154A5
:1025D0000920CDE9034069463846C1E700000140C3
:1025E00000000240001002400004004000040240CD
:1025F00000080040000C0240000C00400020024097
:10260000001C02400004014000180040704770B5F3
:10261000044690F838000D4601280DD0012684F8B4
:102620003860022084F8390042B1042A18D0082A00
:102630002AD00C2A4DD139E0022070BD206801F06B
:10264000EBFC2068816941F00801816120688169A3
:1026500021F004018161206881692A69114311E038
:10266000206801F005FD2068816941F40061816105
:102670002068816921F480618161206881692A690B
:1026800041EA0221816124E0206801F023FD2068F5
:10269000C16941F00801C1612068C16921F00401EC
:1026A000C1612068C1692A69114311E0206801F005
:1026B00041FD2068C16941F40061C1612068C169C0
:1026C00021F48061C1612068C1692A6941EA02215F
:1026D000C16184F83960002084F8380070BD10B5FD
:1026E000040003D094F8390010B107E0012010BDB8
:1026F000002084F83800204600F00CF8022084F80E
:102700003900211D206801F01BFC012084F83900EC
:10271000002010BD08B501682648274A814205D12E
:10272000106840F001001060106812E02248001F9D
:10273000B1F1804F08D0214B99420ED1016841F090
:1027400002010160006826E0016841F001010160BA
:10275000006800F00100009008BD194B994207D1B4
:10276000016841F004010160006800F00400F2E734
:10277000144B994207D1016841F0080101600068DB
:1027800000F00800E7E7104B994207D1106840F0CD
:1027900002001060106800F00200DCE70B4A914272
:1027A000DAD1016841F040010160006800F04000AA
:1027B000D1E700000000014044380240000400401E
:1027C00000080040000C00400004014000180040D8
:1027D0007047000010B504460068012201F010FCAB
:1027E00008492068884202D00749884203D1416CD9
:1027F00041F4004141642068016841F00101016039
:10280000002010BD000001400004014000680349A1
:10281000884201D1FFF7C0B87047000000100040A7
:102820007047704770B5026804461068D1685369F4
:1028300010F00F0F50D003F0010501F490763543EE
:102840005DD0C20705D0CA0503D5E26B42F0010294
:10285000E263420705D5DA0703D0E26B42F00202D9
:10286000E263820705D5DA0703D0E26B42F0040287
:10287000E263020705D5DA0703D0E26B42F00802F3
:10288000E263E26B002A33D0800604D5880602D5C5
:10289000204601F08DFC20684069E16BC0F3801098
:1028A000090700D428B3204601F074FC2068416970
:1028B00049061AD5416921F040014161606BA0B120
:1028C0001B490165606BFEF7FEFD002810D0606BB0
:1028D000016DBDE870400847830610D58B060ED504
:1028E0002046BDE8704001F063BC2046FFF799FF29
:1028F00070BD2046FFF795FF0020E06370BD030622
:1029000006D50B0604D52046BDE8704001F0ECBDAD
:102910004006F3D54806F1D5D168204621F04001A4
:10292000D160202184F8391000F0C0F970BD00009A
:102930008541000870B5040004D094F839000025E2
:1029400010B106E0012070BD84F83850204600F038
:1029500023F8242084F839002068C16821F400514C
:10296000C160204601F06AFC2068016921F49041B1
:1029700001612068416921F02A0141612068C16834
:1029800041F40051C160E563202084F8390084F8E7
:102990003A00002070BD00002DE9F04F0546D0F848
:1029A00000C00220DFF818820024DFF818A20121FD
:1029B000032207238706460287B0C4453AD1DAF8D6
:1029C000008048F01008CAF80080DAF800C00DF165
:1029D00004080CF0100CCDF814C04FF0C00CCDF86A
:1029E00000C088E80F0069467748FEF7DFFEDFF891
:1029F000E08176494046C8F80010C0E90174C0E99A
:102A000003468915C8F81440C0E90641C8F82040BB
:102A1000C8F82440FEF73EFE08B1FEF7A0F9C5F85D
:102A20003480002205212520C8F83850FFF748F8E7
:102A3000252046E0DFF89C81DFF88891DFF898B127
:102A4000A9F10409C44541D1D9F8008048F40038FF
:102A5000C9F80080D9F800C00DF104080CF4003C5E
:102A6000CDF814C04FF0600CCDF800C088E80F001E
:102A700069465846FEF79AFEDFF85481574908F137
:102A800060084046C8F80010C0E90174C0E9034678
:102A9000C8F81440C8F81840C8F81C40C8F82040CE
:102AA000C8F82440FEF7F6FD08B1FEF758F9C5F85E
:102AB0003480002211462620C8F83850FFF700F86D
:102AC0002620FEF7F1FF07B0BDE8F08FDFF8108198
:102AD000C4453ED1D9F8008048F48028C9F8008068
:102AE000D9F800C00DF104080CF4802CCDF814C006
:102AF0004FF4407CCDF800C088E80F006946584686
:102B0000FEF754FEDFF8C880344908F1C008603988
:102B10004046C8F80010C0E90174C0E90346C8F88F
:102B20001440C8F81840C8F81C40C8F82040C8F83D
:102B30002440FEF7AFFD08B1FEF711F9C5F8348067
:102B4000002211462720C8F83850FEF7B9FF272089
:102B5000B7E7244B9C45B6D1DAF8007047F0200760
:102B6000CAF80070DAF8003001AF03F020030593D3
:102B70004FF48443009387E80700082004906946D7
:102B80001948FEF713FE1148184F183838608005B1
:102B9000C7E90104C7E903467C61BC61FC613C6292
:102BA00038467C62FEF776FD08B1FEF7D8F86F6311
:102BB000002205214720BD63FEF782FF472080E702
:102BC00000100140443802400004024040640240CA
:102BD0006440002000440040000C02408860024035
:102BE00000480040001401400018024084410020C9
:102BF00070472DE9F843044690F839001E46174601
:102C00000D46202850D135B32FB394F83800012851
:102C10004AD0012084F838004FF00008C4F83C8006
:102C2000212084F83900FEF7B1FEA784E7848146AD
:102C30004FF48057E08C4B46401EE084A0684FF074
:102C40000002B8424FF080012046009611D101F0F9
:102C50007CFC00BB02E00120BDE8F8832888C0F3BB
:102C6000080120684160206908B16D1C08E0AD1CB6
:102C700006E001F06AFC70B9216815F8010B4860A4
:102C8000E08C0028D6D14B460022402120460096F9
:102C900001F05BFC08B10320DEE7202084F8390056
:102CA00084F838800020D7E70220D5E77047FEE798
:102CB0002DE9F05F544E01213046FEF75DFE0128FC
:102CC00023D04FF00008514F04213846FEF754FE40
:102CD000012800D000204E4C18EA000F4FF47A7BF8
:102CE00040F2DC550ED101213046FEF745FE78B1A9
:102CF000002604213846FEF73FFE012800D00020C0
:102D0000064207D02068456307E04FF00108DAE784
:102D10000126EEE72168C1F834B03E4E3E4F3088C0
:102D2000400408D5462002F033FB3088400402D529
:102D30003868C043386030884FF4FA69010405D51B
:102D400021684FF49662CA634A4604E02168C1F8DC
:102D50003C904FF42F720A64000501D502F090FEFA
:102D60003088800401D502F01DFA3088C00401D5F6
:102D700002F0D2FE29483A684FF480610AB100227D
:102D800000E00122FEF7FDFD3088800508D54620D1
:102D900002F0FEFA3088800502D57868C04378607A
:102DA000B24630781E4E400640F24C4806D5316897
:102DB000C1F838802068456303F070FB9AF8000082
:102DC000000606D53168C1F838802068456303F0F5
:102DD00007FBBAF80000C00506D53168C1F8388095
:102DE0002068456303F0D2FB786838B13068C0F8DA
:102DF0003CB04FF4C8618163BDE8F09F3068C0F813
:102E00003C908563F8E7000000040240000802409F
:102E1000743E0020B8000020A000002000140240F2
:102E2000B03E0020F0B5584E4FF47A612DED068B80
:102E300083B0358805F0010010FB01F0C5F34001B7
:102E40006FF07C0211FB02F100EB4110FDF7BEFABE
:102E500041EC190B4D4CC5F3C0004FF2600184EDFD
:102E6000029B10FB01F0C5F3800101EB4102C2EBB4
:102E7000C11100EB4110FDF7A9FA41EC180BE8066F
:102E800084ED008B6FD4A80612D59FED41AB00BF37
:102E900053EC1A2B51EC190BFDF726FAC4E9020189
:102EA00053EC1A2B51EC180BFDF71EFAC4E9000184
:102EB000394D6FF06301A88910FB01F0FDF786FA28
:102EC000C4E9040194ED028B51EC180B81F0004130
:102ED000FDF78DFA2C4F0837388051EC180BFDF7B1
:102EE00086FA7880384600F0F1FD94ED040B51EC41
:102EF000100BFDF7AEFA94ED020B08EE900A51ECC0
:102F0000100BFDF7A6FA94ED000B08EE100A51EC39
:102F1000100BFDF79EFA00EE100A1B48391DB0EEAB
:102F2000681AD0ED010AFDEEE00A10EE900AF0EE0C
:102F3000480A00F0AFFC317801F00100C1F3400213
:102F40001043C1F380021043C1F3C0010843B5F937
:102F50000C1008430AD003B0381DBDEC068BBDE849
:102F6000F04000F065BD9FED0DAB91E700200090B3
:102F700003460246014601900A4802F0DDFC03B018
:102F8000BDEC068BF0BD0000B80000209049002089
:102F9000000000000000E03F864800200000000024
:102FA00000000040D04200200F4810B50D490160DC
:102FB0000521416000214FF400328160C0E9031215
:102FC0005201C0E905210122C0E907214162816265
:102FD000C162FEF71DF8002803D0BDE81040FDF7E0
:102FE000BEBE10BD00640040D0420020104810B5A5
:102FF0000E4901600521416000214FF04072C0E997
:1030000002124FF4003202615201C0E9052101228F
:10301000C0E9072141628162C162FDF7F9FF002822
:1030200003D0BDE81040FDF79ABE10BD0068004017
:1030300010430020194808B5016841F4800101607F
:10304000016801F480010091016841F40011016000
:103050000068002200F40010009005210C20FEF70B
:103060002FFD0C20FEF720FD002205211020FEF789
:1030700027FD1020FEF718FD002205213920FEF75C
:103080001FFD3920FEF710FD002205213A20FEF732
:1030900017FDBDE808403A20FEF706BD3038024073
:1030A00000B58FB0142210496846FDF7F9F80021E9
:1030B000684602F083F90D49142208600A4905A800
:1030C0001431FDF7EDF8002105A802F077F9064963
:1030D000142228310AA8FDF7E3F800210AA802F01B
:1030E0006DF90FB000BD00006066000864000020AC
:1030F0002DE9F04F824887B00024016841F00101BA
:103100000160016801F001010591016841F00201CF
:103110000160016801F002010591016841F00401BC
:103120000160016801F004010591016841F00801A6
:103130000160016801F008010591016841F010018A
:103140000160016801F010010591016841F0200162
:103150000160016801F020010591016841F0400122
:103160000160016801F040010591016841F08001B2
:1031700001600068002200F080000590082161488D
:10318000FEF7FFFB012204215E48FEF7FAFB4FF435
:103190000058002241465C48FEF7F3FB0022402124
:1031A0005A48FEF7EEFB4FF4C069002249465848E2
:1031B000FEF7E7FB4FF40067002239465148FEF75F
:1031C000E0FB4FF4804A002251465048FEF7D9FBFD
:1031D0004FF4FF7B012259464B48FEF7D2FB0C20EF
:1031E00000900125CDE90154694646480394FEF755
:1031F000DDFA022647480096CDE9010569464148B7
:10320000FEF7D4FACDF80080CDE9015469463E4876
:103210000394FEF7CBFA4FF49060CDE900046946C1
:103220003D480294FEF7C2FA40200090CDE90154D7
:10323000694636480394FEF7B9FACDF80090CDE917
:103240000154694632480394FEF7B0FA0097CDE97D
:10325000015469462B480394FEF7A8FACDF800A064
:10326000CDE90154694629480394FEF79FFACDF849
:1032700000B0CDE90154694623480394FEF796FA5D
:10328000002202212048FEF77CFB01F099FF00227A
:1032900039461C48FEF775FB0327CDE90264CDE9EA
:1032A000007569461948FEF781FA3C2003948DE8C1
:1032B000610069461948FEF779FA41F270008DE81D
:1032C000310069460F48FEF771FA04208DE831009D
:1032D00069461348FEF76AFA009769460C48CDE93B
:1032E0000145FEF763FAA802CDE90005CDE90254D5
:1032F00069460648FEF75AFA07B0BDE8F08F0000AD
:103300003038024000100240001802400014024011
:103310000004024000002110000C0240001C02408A
:1033200000080240104810B50E4901604FF4827148
:10333000416000218160C1604FF400720161C0E909
:1033400005123022C0E90721416281620A21C1626F
:10335000FEF7EEFE002803D0BDE81040FDF7FFBCED
:1033600010BD00000030014020420020104810B580
:103370000E4901604FF48271416000218160C1609B
:103380004FF400720161C0E905123022C0E9072143
:10339000416281620A21C162FEF7CAFE002803D0A1
:1033A000BDE81040FDF7DBBC10BD0000005001403F
:1033B0007842002010B5174888B01549016059219E
:1033C0000024C0E9011440F6C311C0E90314FFF75B
:1033D00086F908B1FDF7C3FC602000904FF47A70C5
:1033E000CDE90104002269460A480494FFF70FF969
:1033F00008B1FDF7B4FC042269460648FFF707F957
:1034000008B1FDF7ACFC0348FFF76CF808B010BD3D
:1034100000180040283F002010B524488AB02249F7
:10342000016059210024C0E901144FF4FA61C0E998
:103430000314FFF754F908B1FDF791FC079407A9AD
:103440001A480894FEF749FF08B1FDF788FC602090
:1034500000904FF47A70CDE90104002269461348C8
:103460000494FFF7D4F808B1FDF779FC042269460B
:103470000E48FFF7CCF808B1FDF771FC0822694649
:103480000A48FFF7C4F808B1FDF769FC0C22694649
:103490000648FFF7BCF808B1FDF761FC0348FFF7E9
:1034A00021F80AB010BD000000000140C03D00201E
:1034B00010B523488AB04FF08041016059210024A3
:1034C000C0E9011440F6C311C0E90314FFF707F97E
:1034D00008B1FDF744FC079407A919480894FEF7C2
:1034E000FCFE08B1FDF73BFC602000904FF4FA6051
:1034F000CDE901040022694611480494FFF787F8DA
:1035000008B1FDF72CFC042269460D48FFF77FF84F
:1035100008B1FDF724FC082269460948FFF777F84F
:1035200008B1FDF71CFC0C2269460548FFF76FF84F
:1035300008B1FDF714FC0248FEF7D4FF0AB010BD35
:10354000FC3D002010B51C488AB01A490160592181
:103550000024C0E9011440F6C311C0E90314FFF7C9
:10356000BEF808B1FDF7FBFB079407A912480894C1
:10357000FEF7B3FE08B1FDF7F2FB602000904FF4B8
:103580007A70CDE90104002269460B480494FFF7E4
:103590003EF808B1FDF7E3FB042269460648FFF751
:1035A00036F808B1FDF7DBFB0348FEF79BFF0AB0D6
:1035B00010BD000000040040383E002010B5244833
:1035C0008AB02249016059210024C0E9011440F663
:1035D000C311C0E90314FFF782F808B1FDF7BFFB80
:1035E000079407A91A480894FEF777FE08B1FDF77B
:1035F000B6FB602000904FF4FA60CDE90104002290
:10360000694613480494FFF702F808B1FDF7A7FBD9
:10361000042269460E48FEF7FAFF08B1FDF79FFB4A
:10362000082269460A48FEF7F2FF08B1FDF797FB4A
:103630000C2269460648FEF7EAFF08B1FDF78FFB4A
:103640000348FEF74FFF0AB010BD0000000800401D
:10365000743E002010B524488AB0224901605921E7
:103660000024C0E9011440F6C311C0E90314FFF7B8
:1036700036F808B1FDF773FB079407A91A480894B8
:10368000FEF72BFE08B1FDF76AFB602000904FF4B7
:10369000FA60CDE901040022694613480494FEF75C
:1036A000B6FF08B1FDF75BFB042269460E48FEF742
:1036B000AEFF08B1FDF753FB082269460A480194A2
:1036C000FEF7A5FF08B1FDF74AFB0C226946064844
:1036D000FEF79DFF08B1FDF742FB0348FEF702FF2E
:1036E0000AB010BD000C0040B03E002030B52E489E
:1036F0002C4991B002C059210024E0E8021440F6A0
:10370000C3114FF47A7580E832002748FEF7E7FFCF
:1037100008B1FDF724FB0E940EA923480F94FEF781
:10372000DCFD08B1FDF71BFB0794089409944FF4E6
:1037300000500A94CDE90B4007A91B480D94FEF7F1
:10374000ABFD08B1FDF70BFB60200090CDE9015403
:103750000394049405940022694613480694FEF7E6
:1037600056FF08B1FDF7FBFA042269460E48FEF742
:103770004EFF08B1FDF7F3FA082269460A48FEF742
:1037800046FF08B1FDF7EBFA0C2269460648FEF742
:103790003EFF08B1FDF7E3FA0348FEF7A3FE11B0C0
:1037A00030BD000000040140EC3E00200D4810B583
:1037B0000B4901600C49416000214FF48062816037
:1037C000C0E903120C22C0E90521C161FFF7B2F87C
:1037D000002803D0BDE81040FDF7C1BA10BD0000BD
:1037E00000100140643F0020A08601000C4810B585
:1037F0000A4901604FF4E1314160002181600C22EF
:10380000C160C0E904128161C161FFF793F800282B
:1038100003D0BDE81040FDF7A2BA10BD004400403F
:10382000A43F00200C4810B50A4901604FF4E13173
:103830004160002181600C22C160C0E904128161F5
:10384000C161FFF777F8002803D0BDE81040FDF70D
:1038500086BA10BD00480040E43F00200C4810B577
:103860000A4901604FF4E1314160002181600C227E
:10387000C160C0E904128161C161FFF75BF80028F3
:1038800003D0BDE81040FDF76ABA10BD0014014036
:10389000244000203CB5DFED4E1A10EE103A4D4AA0
:1038A0009FED4D2A4D4CDFED4E2A934202DDB0EEE6
:1038B000420A05E010EE103AA34201D9B0EE620AC6
:1038C00010EE903A934202DDF0EE420A05E010EE6F
:1038D000902AA24201D9F0EE620A11EE102A414C60
:1038E000414BA24202DD9FED411A05E011EE102A84
:1038F0009A4201D99FED3E1A30EEC02A00236C4651
:1039000032EE412ABDEEC22A12EE102AB1EE402A52
:10391000ADF8002032EE602A32EE412ABDEEC22A16
:1039200012EE102A30EE602A30EE200AADF80220A6
:1039300032EE412A30EE410ABDEEC22ABDEEC00A87
:1039400012EE102AADF8042010EE102AADF8062071
:1039500034F91320002A01DD154600E0554200EE3F
:10396000105AB8EEC00AB4EEE10AF1EE10FA06DD24
:10397000002A00DC524200EE102AF8EEC01A5B1C4E
:10398000042BE5DB00EE100AB8EEC00AF4EEC01A14
:10399000F1EE10FA17DD00EE100A0020F8EEC00A72
:1039A00080EEA10A34F9102000EE902AF8EEE00A29
:1039B00060EE800AFDEEE00A10EE902A24F8102056
:1039C000401C0428EEDB00980860019848603CBD6C
:1039D0000000000000C05A4600C05A4600C05AC647
:1039E00000C05AC600401C4600401CC600401C4691
:1039F00000401CC6FEE770470907090E002806DADA
:103A000000F00F0000F1E02080F8141D704700F175
:103A1000E02080F80014704730B4034C4466034C37
:103A2000846630BC01F0D4BDD1550008DF550008D4
:103A30002DE9FC41224F234D0646002436F914009F
:103A400000EE100A04EB440007EB0010F8EEC00A89
:103A5000B0F9000000EE100A04EBC40000EB4000D7
:103A6000B8EEC00A05EB800001F0D0FC641C042C09
:103A7000E4DB95ED600A0021BDEEC00A10EE100AED
:103A800000B2CDE9000195ED450ABDEEC00A10EE89
:103A9000100A95ED2A0A03B2BDEEC00A10EE100A14
:103AA00095ED0F0A02B2BDEEC00A10EE100A01B287
:103AB000054801F041FFBDE8FC41052001F068BC6C
:103AC0005043002080450020D04200202DE9FC41D9
:103AD000284F294D0646002436F9140000EE100A3E
:103AE00004EB440007EB0010F8EEC00AB0F9000048
:103AF00000EE100A04EBC40000EB4000B8EEC00A70
:103B000005EB800001F082FC641C032CE4DB1B4805
:103B10000088C0F38011C0F3C0121143C0F300202D
:103B200001434FF000004FF00102CDE9000209D03F
:103B300095ED450A00221146BDEEC00A10EE100AAE
:103B400003B20EE095ED2A0A0023BDEEC00A10EE86
:103B5000100A95ED0F0A02B2BDEEC00A10EE100A6F
:103B600001B2074801F0E8FEBDE8FC41052001F084
:103B70000FBC00007044002030470020B800002037
:103B8000D042002001F004BF2DE9F0417648774C87
:103B90004FF47A762DED068B4FF416674FF42F789D
:103BA00040F2DC5500780A2830D2DFE800F02F051B
:103BB0000D19333D47D65F5101F052FF206846632F
:103BC0002068C763414620E001F04AFF2068C763D0
:103BD000C0F84080BDEC068BBDE8F041FFF768B847
:103BE0002068466301F044FF614D00220121284610
:103BF000FDF7C7FE012202212846FDF7C2FE20681C
:103C000040F29C41C1634FF4EB610164BDEC068B53
:103C1000BDE8F08101F024FF20684563BDEC068B10
:103C2000BDE8F04102F03ABC01F01AFF206845639C
:103C3000BDEC068BBDE8F04102F0D2BB01F010FFF5
:103C400020684563BDEC068BBDE8F04102F09EBCE8
:103C500001F0C8FA01F0D6F9022801D101F05CFFA9
:103C6000BDEC068BBDE8F04102F082BB01F0F8FE2E
:103C700001F0C8F902286AD03E4C6FF00901208893
:103C800010FB01F0FCF7A2FB3B4D41EC190B85ED5D
:103C9000009BB4F9020000EB80004000FCF796FBAB
:103CA00041EC180B6FF0090185ED028BA088B0EE96
:103CB00048AAF0EE68AA10FB01F0FCF787FB41EC84
:103CC000100B85ED040BFCF7C4FB08EE900A51ECD9
:103CD0001A0BFCF7BEFB08EE100A51EC190BFCF7AF
:103CE000B8FB264900EE100AA1F11000B0EE681AE8
:103CF000D0ED020AFDEEE00A10EE900AF0EE480A5E
:103D0000FFF7C8FD1D48FFF793FEB4F9020000EB72
:103D100080004000FCF75AFB41EC180BA5F11000A5
:103D200080ED028B51EC180B81F00041FCF75FFB3A
:103D3000124C241F208051EC180BFCF758FB6080BC
:103D40002046BDEC068BBDE8F041FFF7BFBEBDECE1
:103D5000068BBDE8F04101F0DFBEBDEC068BBDE88F
:103D6000F04101F08DBE000074000020743E002080
:103D7000001402408648002070490020B000002056
:103D80004FF40064094D0A4FE60000BF01F0D8F976
:103D9000012221462846FDF7F4FD0022314638462F
:103DA000FDF7EFFD01F026FBF0E7000000100240F8
:103DB0000014024001F0F8BA30B5264893B000254F
:103DC000016841F080510160006800F0805011905E
:103DD0002148016841F4404101600068022400F478
:103DE000404011900120009001908005CDE90640EF
:103DF00006200890B420CDE9090404200B90684601
:103E0000FEF724F800B1FEE7FDF78CFE00B1FEE7F7
:103E10000CA90F2081E831004FF4A0500F904FF40F
:103E20008050109005210CA8FDF7C2FE00B1FEE7FE
:103E3000FDF79CFF4FF47A71B0FBF1F0FEF716FA34
:103E40000420FEF707FA00220F21501EFDF738FE6E
:103E500013B030BD40380240007000401048016887
:103E600041F4700101600F48016841F001010160F7
:103E70000C4A00210832116002680B4B1A400260A4
:103E8000031D0A4A1A60026822F480220260054873
:103E90000C30016002495806803908607047000004
:103EA00088ED00E000380240FFFFF6FE10300024ED
:103EB00070B51748FEF762FA164C02212046FDF74E
:103EC0005BFD0028F9D0124D2868466A0221204681
:103ED000FDF752FD0028F9D12968486A00224A629C
:103EE000801B00EB001000EE100A9FED0B1AF8EE9D
:103EF000C00A80EE810A10EE100AFCF797FABDE8BE
:103F0000704041EC100B05A053EC102B00F09CBB53
:103F1000FC3D00200014024000007A446469737480
:103F2000616E63653D25302E316620636D210D0A7B
:103F3000000000000148FEF721BA0000E441002023
:103F4000F0B50268234B244D244E254F254C4FF0ED
:103F5000804C984209D0604507D0A84205D0B042B5
:103F600003D0B84201D0A04204D122F0700E4A68BA
:103F700042EA0E0298421BD0604519D0A84217D0E1
:103F8000B04215D0B84213D0A04211D0164DA8426D
:103F90000ED0164DA8420BD0154DA84208D0154D95
:103FA000A84205D0144DA84202D0144DA84203D116
:103FB00022F44075CA682A4302608A68C2620A68AD
:103FC0008262984201D0A04201D1096901630121B6
:103FD0004161F0BD000001400004004000080040C5
:103FE000000C00400004014000400140004401403A
:103FF0000048014000180040001C00400020004024
:1040000010B50123046A8B409C430462036A8A4012
:104010001343036210BD000030B5026A22F00102B2
:104020000262026A436884690D6824F073042543C0
:1040300022F002048A6822430B4CA04202D00B4CAF
:10404000A0420BD122F00804CA6823F44073224333
:104050004C6922F004021C438B6923434360856151
:1040600049684163026230BD000001400004014024
:1040700030B5026A22F010020262026A4368846963
:104080000D6824F4E64444EA05248D6822F02002F9
:1040900042EA05120D4DA84202D00D4DA8420ED1A4
:1040A000CD6822F0800242EA05124D6923F4406394
:1040B00043EA85038D6922F0400243EA85034360A9
:1040C000846149688163026230BD000000000140E4
:1040D0000004014030B5026A22F480720262036A71
:1040E0004268C46923F4007324F073050C682C4300
:1040F0008D6843EA05230D4DA84202D00C4DA8421D
:104100000ED1CD6823F4006343EA05234D6922F400
:10411000405242EA05128D6923F4806342EA051297
:104120004260C4614968C163036230BD0000014060
:104130000004014030B5026A22F480520262046A2F
:104140004268C3690D6823F4E64343EA05238D689A
:1041500024F4005444EA0534084DA84202D0084D26
:10416000A84204D14D6922F4804242EA851242609D
:10417000C36149680164046230BD00000000014071
:104180000004014010B5806B0021C185C184FEF799
:1041900048FB10BD0168CA6822F49072CA600168C9
:1041A0004A6922F001024A61202180F83A107047E2
:1041B00010B590F83A10222901D0022010BD816874
:1041C000B1F5805F11D00169002901681FD04968ED
:1041D00001F07F03816A4A1C82620B70C18D491E07
:1041E0000904090CC18518D026E00269816A002AF9
:1041F0000268526805D0D2B20A80816A491C816285
:10420000ECE7C2F308020A80816A891CF7E74A6872
:10421000816A4B1C83620A70E0E70168CA6822F475
:104220009072CA6001684A6922F001024A61202145
:1042300080F83A10FEF7DCFC002010BD2DE9F041BB
:1042400004460068016921F44052E16811430161AC
:104250002168C86849F20C6290432369A268E56945
:104260001A4363692B431A430243CA6021684869B1
:1042700020F44072A06910434861E1696425B1F5FA
:10428000004F9748974A21684FF032083FD091423B
:1042900001D081427CD1FDF787FD00EBC00101EB2D
:1042A000001061688900B0FBF1F6FDF77DFD00EBC1
:1042B000C00101EB001061688900B0FBF1F0B0FBB8
:1042C000F5F06FF01801484306EB800108EB011090
:1042D000B0FBF5F000F0F006FDF766FD00EBC00165
:1042E00001EB001061688900B0FBF1F0B0FBF5F064
:1042F00006EB0016FDF758FD00EBC00101EB0010C6
:1043000061688900B0FBF1F7FDF74EFDD2E0914204
:1043100001D081423DD1FDF747FD00EBC00101EB2B
:10432000001061684900B0FBF1F0B0FBF5F0060148
:10433000FDF73AFD00EBC00101EB00106168490098
:10434000B0FBF1F7FDF730FD00EBC00101EB001011
:1043500061684900B0FBF1F0B0FBF5F06FF01801B7
:10436000484307EB800108EBC100B0FBF5F000F01B
:10437000F80006EB4006FDF717FD00EBC00101EB6E
:10438000001061684900B0FBF1F7FDF70DFD3CE05E
:1043900055E0FDF7F1FC00EBC00101EB0010616896
:1043A0004900B0FBF1F0B0FBF5F00601FDF7E4FCCD
:1043B00000EBC00101EB001061684900B0FBF1F7B0
:1043C000FDF7DAFC00EBC00101EB00106168490069
:1043D000B0FBF1F0B0FBF5F06FF01801484307EBCC
:1043E000800108EBC100B0FBF5F000F0F80006EB2F
:1043F0004006FDF7C1FC00EBC00101EB0010616855
:104400004900B0FBF1F7FDF7B7FC00EBC00101EB91
:10441000001061684900B0FBF1F0B0FBF5F06FF0FF
:104420001801484307EB800108EBC100B0FBF5F031
:1044300000F00700216830448860BDE8F081FDF796
:104440009BFC00EBC00101EB001061688900B0FB30
:10445000F1F6FDF791FC00EBC00101EB0010616883
:104460008900B0FBF1F0B0FBF5F06FF018014843A4
:1044700006EB800108EB0110B0FBF5F000F0F00650
:10448000FDF77AFC00EBC00101EB001061688900C8
:10449000B0FBF1F0B0FBF5F006EB0016FDF76CFC9D
:1044A00000EBC00101EB001061688900B0FBF1F77F
:1044B000FDF762FC00EBC00101EB001061688900B0
:1044C000B0FBF1F0B0FBF5F06FF01801484307EBDB
:1044D000800108EB0110B0FBF5F000F00F00A9E738
:1044E000001401400010014090F83910212901D03A
:1044F000022070478168B1F5805F016A0BD04A1CC9
:104500000262026809785160C18C491E0904090CD5
:10451000C1840ED017E009880268C1F30801516018
:1045200001690029016A02D0491C0162ECE7891C7B
:10453000FBE70168CA6822F08002CA600068C168AF
:1045400041F04001C160002070472DE9F0419846DC
:1045500017460E460446069D1DE0681C1BD02DB173
:10456000FDF714FAA0EB0800A84214D92068C1682E
:1045700021F4D071C1602068416921F001014161DD
:10458000202084F8390084F83A00002084F83800AC
:104590000320BDE8F0812068006836EA000004D0FE
:1045A0000020B842D9D00020F3E70120F9E700004D
:1045B00010B5044801F0F1FABDE810400148FEF7DB
:1045C00031B90000643F00200148FEF72BB900001C
:1045D000A43F00200148FEF725B90000E43F002079
:1045E0000148FEF71FB9000024400020FEE730B567
:1045F0000C46050013D0022C11D94FF6FF72A11EF4
:10460000FCF7AEFB2919C2B211F8023C9A4206D15E
:1046100011F8011CB1EB102F01D1012030BD002099
:1046200030BD30B50C4605000CD0022C0AD9FF2253
:10463000611EFCF7ABFB291911F8011C814201D165
:10464000012030BD002030BD0FB4054B10B503A9CB
:10465000044A029800F0DAF810BC5DF814FB000080
:104660008D4F0008CC00002002E008C8121F08C1CE
:10467000002AFAD170477047002001E001C1121FE3
:10468000002AFBD1704700002DE9FF5F82B00021B6
:10469000DDE90430020DDDF840B0034318D044F6E4
:1046A0001050A2F2FF3242431514119801281FD076
:1046B000A5EB0B00401C5FEA000A4FF000064E4FCE
:1046C000DFF83891B046504615D5CAF1000413E022
:1046D000119801244AA3012801D16FEA0B01029825
:1046E000119AC0E90031C0E9024206B0BDE8F09F6E
:1046F000CBF10000DFE704460021404A491842EBB5
:104700000450CDE9001012E0E00707D032463B46E6
:1047100040464946FBF7E8FD8046894632463B461F
:1047200010461946FBF7E0FD06460F466410002CC4
:10473000EAD1DDE90401DDE90023BAF1000F06DA70
:10474000FBF7D2FD42464B46FBF7CEFD05E0FCF7FA
:104750002EF842464B46FCF72AF804460E46002245
:10476000284BFCF7ABF803D84FF0FF30014607E0C9
:104770000022254B20463146FBF772FFFCF786F8F6
:10478000102409E0002C0ADB0A220023FBF793FE29
:10479000039B30321A55641E50EA0102F2D1641CA8
:1047A000039AC4F111031444119A012A03D001227F
:1047B00008430DD10AE0084304D000204FF0110B4C
:1047C000119072E7A3EB0B056D1E0DE05B4504DD58
:1047D0004FF0000205F1010504E003DA4FF000029A
:1047E000A5F10105002AECD002981199C0E9023127
:1047F000C0E9004579E70000000014400000F03FE8
:10480000300000000000F0430000E03F2DE9FF4FC2
:1048100095B09B468946064600250FE2252877D1AC
:1048200000242746F84A0121059400E0044316F8C5
:10483000013F203B01FA03F01042F7D130782A28DB
:1048400011D06FF02F033078A0F13002092A16D86A
:10485000059A44F0020402EB820203EB4202104488
:10486000761C0590EFE759F8042B0592002A03DA2D
:10487000504244F40054059044F00204761C307811
:104880002E2816D116F8010F44F004042A280DD062
:104890006FF02F023078A0F13003092B09D807EB15
:1048A000870302EB4303C718761CF3E759F8047B30
:1048B000761C30786C280FD006DC4C2817D068287E
:1048C0000DD06A2814D104E0742810D07A280FD1B2
:1048D0000DE044F400140AE044F4801401E044F4D0
:1048E00040147278824202D104F58014761C761C42
:1048F000307866280BD013DC582877D009DC0028E4
:1049000075D04528F6D04628F4D047281AD19DE125
:1049100018E0632835D0642879D0652812D195E154
:10492000702873D008DC6728F1D069286FD06E2812
:104930000DD06F2806D1B5E073282CD0752875D01E
:10494000782874D05A46179990476D1C75E1C4F3C6
:104950000250022809D003280DD0D9F800100428ED
:104960000DD00D6009F1040967E1D9F80010EA17CC
:10497000C1E90052F6E7D9F800100D80F2E70D709A
:10498000F0E719F8041B8DF8001000208DF80100E5
:10499000EA46012003E059F804AB4FF0FF3061070D
:1049A0004FF0000102D40DE008F101018846B94240
:1049B0000FDA8045F8DB1AF808100029F4D108E076
:1049C00008F1010188468142FADB1AF80810002933
:1049D000F6D105985B46A0EB080721463846179AA2
:1049E00000F094FA284400EB080507E04DE029E1C7
:1049F0000DE01AF8010B5A4617999047B8F10108D3
:104A0000F7D25B4621463846179A13E142E00A2264
:104A10000092C4F302524FF0000A022A08D059F85B
:104A200004CB032A4FEAEC710AD00DE029E02AE01A
:104A300009F1070121F00702F2E802C1914609E0FD
:104A40000FFA8CFC4FEAEC71042A03D14FFA8CFC6C
:104A50004FEAEC71002907DA0A460021DCF1000C6C
:104A600061EB02012D2202E0220504D52B228DF8F4
:104A70000420012203E0E20701D02022F7E790465C
:104A800059E00A2102E010220DE010214FF0000A47
:104A900000910BE010224FF0000A44F004040827B4
:104AA000009203E008224FF0000A0092C4F3025281
:104AB000022A05D059F804CB0021032A08D009E0C6
:104AC00009F1070121F00702F2E802C1914605E071
:104AD0001FFA8CFC042A01D10CF0FF0C4FF00008E7
:104AE000220728D5702806D0009B83F0100353EAD4
:104AF0000A0305D00EE040228DF80420012208E0D0
:104B00005CEA010206D030228DF804208DF8050001
:104B100002229046009B83F0080353EA0A030AD15D
:104B20005CEA010201D1620705D530228DF804202C
:104B30004FF001087F1E582804D034A003900EA81F
:104B400002900DE036A0F9E753466046009AFBF765
:104B5000B2FC84460398825C0298401E0290027068
:104B60005CEA0100F0D1029806A9081A00F1200AB7
:104B7000600702D524F4803400E00127574502DDA8
:104B8000A7EB0A0000E0002000EB0A010090059866
:104B90004144401A0590E00306D45B462146179A2B
:104BA000059800F0B3F90544002706E001A85A462D
:104BB000C05D179990476D1C7F1C4745F6DBE003ED
:104BC0000CD55B462146179A059800F09FF90544DD
:104BD00004E030205A46179990476D1C0099481EF2
:104BE00000900029F5DC08E0029802995A46007806
:104BF000491C0291179990476D1CBAF10001AAF166
:104C0000010AF1DC65E1000009280100303132338E
:104C100034353637383961626364656600000000F8
:104C200030313233343536373839414243444546E2
:104C30000000000000F058F90544761C3078002888
:104C40007FF4ECAD19B02846BDE8F08F620700D4C0
:104C5000062709F1070222F0070CFCE80223E146CF
:104C600003F000485FEA080C02D00FF2702C0DE050
:104C70005FEA045C02D50FF2682C07E05FEAC47CAF
:104C800002D00FF2602C01E0AFF2700C4FF0FF3851
:104C900023F00043CDF850C065280CD006DC452831
:104CA00009D046281DD047283DD13DE0662818D0C0
:104CB00067287ED138E00021112F01DB112000E0B0
:104CC000781CCDE9000106A90EA8FFF7DDFCDDE99F
:104CD0000F010E9A03910021009207F1010A04913D
:104CE0004DE04FF000400097CDE9011006A90EA855
:104CF000FFF7CAFCDDE90F0203920E9B1199002217
:104D0000DDF80CA00093049211B9791C00EB010AA4
:104D1000B7EB0A0004D4C0F1FF3007F1010A049098
:104D2000AAEB0700019044E0012F00DA01270021DF
:104D3000112F01DD112000E03846CDE9000106A960
:104D40000EA8FFF7A1FCDDE90F010E9A03910021E7
:104D500004910092BA4621070CD40399514500DA18
:104D60008A46BAF1010F05DD009AAAF10101515CF2
:104D7000302908D0B84202DA10F1040F06DA012116
:104D8000CDE9011015E0AAF10101E9E7002805DCF1
:104D9000049901440491AAEB000102E0411C514531
:104DA00000DD8A460499401A401C01904FF00040F3
:104DB0000290200704D40198504501DBCDF804800F
:104DC00000208DF84F0002980DF14F07B0F1004F11
:104DD00025D02B200E9002984FF0020800280CDA04
:104DE000404202902D200E9007E00A210298FBF726
:104DF0004CFB3031029007F8011DB8F10001A8F119
:104E00000108F2DC02980028EFD1791E0E98087094
:104E1000307800F0200040F0450007F8020D12A89D
:104E2000C01B00F107081498007800B1012000EBC6
:104E30000A01019801EBE07105984144401A401EB7
:104E40000590E00306D45B462146179A059800F0CA
:104E50005DF805441498007818B15A4617999047A0
:104E60006D1CE00324D55B462146179A059800F097
:104E70004DF805441CE00498002807DBDDE9030138
:104E8000884203DD0098405C179901E017993020B3
:104E90005A469047049805F10105401C049001987A
:104EA000401E019004D12E205A46179990476D1C40
:104EB000BAF10001AAF1010ADDDC05E017F8010BE7
:104EC0005A46179990476D1CB8F10001A8F10108E6
:104ED000F4DC5B462146179A0598ABE62D000000EE
:104EE0002B000000200000002DE9F04104460025C1
:104EF0001E461746880404D405E039462020B047F2
:104F00006D1C641EF9D52846BDE8F0812DE9F041FD
:104F1000044600251E469046C80301D5302700E010
:104F20002027880404D505E041463846B0476D1C6B
:104F3000641EF9D52846BDE8F081D0ED000AF4EEF4
:104F4000C00AF1EE10FA01DD80ED000AD0ED000A92
:104F5000B1EE400AF4EEC00AF1EE10FA01D280ED93
:104F6000000A7047074882B00068016841680091F4
:104F7000C16841F01001C16032220349014802B00A
:104F800000F0ECBD643F00207448002010B50446DA
:104F900005484FF47A730146047001220348FDF777
:104FA00028FE204610BD00006C0000202440002098
:104FB00030B5448984814A6B6FF00405928A52BAF5
:104FC00042814B6BDB8A5BBA438003804B6B1B8B4C
:104FD0005BBA1BB293FBF5F38380496B131BB3F5EC
:104FE000805F897E0172416901DD491E03E013F58E
:104FF000805F01DA491C416102EB4131028A891A62
:10500000816130BD70B54D4C40212046FCF7B4FCA9
:10501000D0B100264FF4805529462046FCF7ACFC61
:10502000A0B10020064010212046FCF7A5FC78B175
:105030000020064020212046FCF79EFC50B10020B5
:10504000064209D0032070BD0126E3E70120E9E70D
:105050000120EEE70120F3E740212046FCF78CFC1D
:1050600001281BD0002629462046FCF785FC012894
:1050700000D00020064010212046FCF77DFC0128CE
:1050800000D00020064020212046FCF775FC0128B6
:1050900000D00020064203D0022070BD0126E2E7C6
:1050A00010212046FCF768FCD0B1002620212046C4
:1050B000FCF762FCB0B10020064217D04021204628
:1050C000FCF75AFC01280FD0002629462046FCF7A1
:1050D00053FC012800D00020064207D0052070BDF7
:1050E0000126E3E70120E7E70126EEE7402120461D
:1050F000FCF742FCD0B1002629462046FCF73CFCD8
:10510000B0B10020064217D010212046FCF734FC35
:1051100001280FD0002520212046FCF72DFC012876
:1051200000D00020054207D0012070BD0126E3E732
:105130000120E7E70125EEE7042070BD00100240E2
:1051400016481649027A1648497A012A0CD0032AD1
:1051500014D0022A07D101291CD002291CD003290E
:1051600001D10821017070470129FBD0022903D029
:105170000329F8D10221F5E70321F3E7012905D03E
:10518000022905D00329EED10521EBE70421E9E747
:105190000621E7E70721E5E70921E3E78648002044
:1051A0007400002010B500F01DF8FFF72BFF022857
:1051B00001D100F0B1FCBDE8104001F0D9B8000009
:1051C00010B50122D1020548FCF7DBFB0122BDE846
:1051D000104091030248FCF7D4BB000000100240CD
:1051E0000014024070B5344C6FF009012DED068BB0
:1051F000208810FB01F0FBF7E9F8304D41EC190B6A
:1052000085ED009BB4F9020000EB80004000FBF745
:10521000DDF841EC1A0B6FF0090185ED02ABA088B7
:1052200010FB01F0FBF7D2F841EC100B85ED040BFD
:10523000FBF70FF908EE900A51EC1A0BFBF709F98E
:1052400008EE100A51EC190BFBF703F91C4900EEAC
:10525000100AA1F12000B0EE681AD0ED020AFDEEAE
:10526000E00A10EE900AF0EE480AFEF713FB14482D
:10527000FEF7DEFBB4F9020000EB80004000FBF714
:10528000A5F841EC180BA5F1200080ED028B51EC44
:10529000180B81F00041FBF7AAF8094C143C208060
:1052A00051EC180BFBF7A3F860802046BDEC068B91
:1052B000BDE87040FEF70ABC864800204049002047
:1052C00098000020FCF770FBFEF776FDFDF710FF5D
:1052D000FDF7B0FEFDF768FEFDF788FEFEF722F849
:1052E000FEF744F8FEF762FAFEF780FAFEF79AFA44
:1052F000FEF7B4FAFEF790F8FEF7DAF8FEF722F9B7
:10530000FEF75CF9FEF7A6F9FEF7F0F9FEF752F8A2
:10531000FFF728FE00F066F9FDF7C2FE00F03FF847
:10532000FEE701460020842900D0C81C7047000019
:1053300030B58BB004460020012103900490CDE9E4
:1053400006010E25CDE90815059000900190029008
:1053500069462046FBF728FD694620460595FBF780
:1053600023FD0848844203D1074820631C30606352
:105370000648844204D10448403020631C306063F6
:105380000BB030BDD042002000450020104300206B
:1053900010B500B9012000F013FD002010BD10B5BC
:1053A00000F042FD002010BD10B500F00BFF0128F9
:1053B00003D0BDE8104000F011BE10BD30B504466A
:1053C00085B00D46B0F90800FFF7ABFF002104AA35
:1053D0000090CDE901210391208A2B4682B2D4E9C5
:1053E000001000F011FE012802D0002005B030BDF1
:1053F0000498FBE704494FF080500860BFF34F8FDB
:10540000BFF36F8F0020704704ED00E000B530EE71
:10541000C01A80ED080AC0ED050A80ED0B1AD0ED28
:10542000141A01469FED692A30EEC00AF5EEC01A43
:10543000B1EE400AF1EE10FA0ED0B5EEC01AF1EE60
:1054400010FA02DDF0EE410A01E0F0EE400AF4EE5F
:10545000E10AF1EE10FA12DCD1ED150AF5EEC00A00
:10546000F1EE10FA0ED0B5EEC01AF1EE10FA01DD31
:10547000B0EE410AB4EEE00AF1EE10FA02D2B0EE5C
:10548000420A00BD886D01F13402032802D00428CD
:1054900038D07AE091ED000A104620EE010A81ED45
:1054A0000C0A91ED0D0AD1ED010A00EE810A81EDA1
:1054B0000D0A91ED0A0AD1ED020A31EE400A20EE02
:1054C000200A81ED0E0A91ED180AB8EE400AFFF7A6
:1054D00034FD91ED0C0AD1ED0D0A01F13C0030EEE6
:1054E000200AD1ED0E0A30EE200A81ED0F0A91ED6F
:1054F000170AB8EE400AFFF720FD91ED0F0A81ED83
:10550000100A42E091ED0A0AD1ED001A104671EE40
:10551000400A60EEA10AC1ED0C0AD1ED010A60EE6D
:10552000810AC1ED0D0AF0EE000A00EE601A91ED5D
:10553000090AD1ED020A31EE000A20EE200A81EDBF
:105540000E0A91ED180AB8EE400AFFF7F6FC91ED4D
:105550000C0AD1ED0D0A01F1480030EE200AD1ED20
:105560000E0A30EE200A81ED110AD1ED130A30EE59
:10557000800A81ED120A91ED170AB8EE400AFFF792
:10558000DCFC91ED120A81ED130A91ED0A0A81ED1E
:10559000090A91ED0B0A81ED0A0A91ED070A81EDE6
:1055A000060A91ED080A81ED070A91ED040A81EDE2
:1055B000030A91ED050A81ED040A886D032802D0E3
:1055C00091ED120A00BD91ED0F0A00BD0000000030
:1055D00000F1580C8CE80E0080EC030A704780EC58
:1055E000030A7047012234210148FCF7CAB90000C0
:1055F000001C024070B50B4C054620684560E06811
:105600002168854205D2606BBDE87040091D00F03D
:1056100041BB206B091D00F03DFBA06A854200D212
:10562000A56270BD0800002070B5124E124C1AE041
:1056300000F02EFC3068D0B100F038FE00F04EFBD8
:10564000F068C568281D00F005FBA068401EA0603A
:105650006068401E606000F061FB286B00F072FB28
:10566000284600F06FFB60680028E1D170BD00F0B3
:105670001DFEF8E7980100200800002010484FF4B4
:105680007051420706D0C01D0D4920F00700411A95
:10569000C1F570510B4A00230144C2E900030839E7
:1056A000103A21F0070111604B600B600B1AC0E942
:1056B000001393604FF000405360D06070470000CB
:1056C000C00100205C000020074C4FF08056074DC1
:1056D000FFF7AAFF20680128FAD92E60BFF34F8F89
:1056E000BFF36F8FF4E70000D000002004ED00E06E
:1056F00030B5114900E011460A688242FBD34B687D
:105700005C18844203D140681844486008464368E6
:105710001C18944209D1084C103C2468A24209D0BC
:1057200052681A4442600A6812680260814200D0DE
:10573000086030BD0460F9E75C0000200648016B9A
:10574000096829B1016BC968C968496881627047F5
:105750004FF0FF31FAE700000800002008484068D9
:10576000401C4FF0500080F3118804D0BFF34F8FDE
:10577000BFF36F8FFEE7BFF34F8FBFF36F8FFEE76F
:10578000400000202DE9F0410546002700F080FB95
:10579000314E306808B9FFF771FFF06805424BD110
:1057A000C5B3083568070ED005F00700C0F1080042
:1057B0000544680707D0502080F31188BFF34F8F4E
:1057C000BFF36F8FFEE72DB37068854234D822484F
:1057D000103001460C6801E020460C466168A94281
:1057E00002D221680029F7D131688C4224D00768A1
:1057F0002168016060680837411B10290FD96019C2
:10580000420708D0502080F31188BFF34F8FBFF3B9
:105810006F8FFEE710E041606560FFF769FF616828
:105820007068401A7060B268904200D2B060F06850
:1058300001430020C4E9000100F038FD780707D0DB
:10584000502080F31188BFF34F8FBFF36F8FFEE7B7
:105850003846BDE8F08100004C00002010B5031F61
:105860004FF080741C601B1F1960191F044B0B60E4
:1058700014390A60091F6FF0020244380A6010BD33
:105880005D57000870B5054608880C46C0F30A024B
:10589000A2F580622A8048788978C00840EA4110E1
:1058A000C0F30A03A3F580636B80A078E1788009D8
:1058B00040EA8100217902F5257240EA8120C0F397
:1058C0000A01A1F58061A98020796679400840EA43
:1058D000C610C0F30A00A0F58060E8806679B609BA
:1058E0002E726679C6F301166E724FF4A566B24247
:1058F0000BD803F52573B34207D801F52571B142E2
:1059000003D800F52570B04203D916212846FAF7CE
:10591000E0FCE088A8812089E88160892882207BDA
:10592000A874607BE874E089A882208AC0F30A002A
:10593000A0F58060688170BDF0B4056BDDE90446B8
:1059400016B340F2FF162E60066B0025B560066B9D
:10595000F560066B08253561066B0D0A3575056B1C
:105960006975056B110AA975016BCA75026B190A75
:105970001176016B4B76026B210A9176016BCC7626
:10598000F0BC6421FBF7D4BC4FF40076DBE70000E9
:1059900070B515482DED028BFFF7CAFC00211248A7
:1059A000FBF74AFC00211148FBF746FC104D9FED28
:1059B000118A002444F6206604EBC40000EB40008A
:1059C00005EB8000B0EE001AF0EE480AB1EE0A0ACC
:1059D000324633460321FEF71FF8641C032CEBDB31
:1059E000BDEC028B70BD0000D042002010430020AF
:1059F00030470020CDCCCC3DFEF7C4F8002116483E
:105A0000FCF7E8FE04211448FCF7E4FE08211248E4
:105A1000FCF7E0FE0C211048FCF7DCFE08210F48E3
:105A2000FCF7D8FE04210D48FCF7D4FE0A484FF4D9
:105A30007A7102685163026840F2DC519163006838
:105A40004FF41661C1634FF42F710164FEF79CF8A7
:105A5000FFF7D0FCFAE70000743E0020B03E0020C3
:105A6000002208210148FBF78CBF0000001C024007
:105A7000012208210148FBF784BF0000001C0240FE
:105A80002DE9F041FFF7BEFA214C224D41F2883654
:105A9000032812D1FFF7ECFF012211462046FBF745
:105AA00070FF002202212046FBF76BFF3046FFF714
:105AB0006FFCFFF7D5FF01202860FFF7A3FA02284B
:105AC00001D1FFF78FFBFFF79DFA012806D00027D1
:105AD000FFF798FA052803D0012002E00127F7E735
